{"contracts/Verify.sol":{"AttestorRegistry":{"abi":[{"anonymous":false,"inputs":[{"indexed":true,"internalType":"address","name":"attestor","type":"address"},{"indexed":false,"internalType":"uint256","name":"weight","type":"uint256"}],"name":"AttestorAdded","type":"event"},{"inputs":[{"internalType":"address","name":"_attestor","type":"address"}],"name":"addAttestor","outputs":[],"stateMutability":"nonpayable","type":"function"},{"inputs":[{"internalType":"uint256","name":"index","type":"uint256"}],"name":"getAttestor","outputs":[{"internalType":"address","name":"","type":"address"},{"internalType":"uint256","name":"","type":"uint256"}],"stateMutability":"view","type":"function"},{"inputs":[{"internalType":"uint256","name":"","type":"uint256"}],"name":"globalAttestorsList","outputs":[{"internalType":"address","name":"pk","type":"address"},{"internalType":"uint256","name":"weight","type":"uint256"}],"stateMutability":"view","type":"function"},{"inputs":[{"internalType":"address","name":"","type":"address"}],"name":"globalAttestorsMap","outputs":[{"internalType":"bool","name":"","type":"bool"}],"stateMutability":"view","type":"function"},{"inputs":[{"components":[{"internalType":"string","name":"signature","type":"string"},{"internalType":"uint256","name":"L","type":"uint256"},{"internalType":"uint256","name":"R","type":"uint256"},{"internalType":"string","name":"_r","type":"string"},{"internalType":"string","name":"_s","type":"string"},{"internalType":"uint8","name":"_v","type":"uint8"}],"internalType":"struct AttestorRegistry.Leaf[]","name":"arr","type":"tuple[]"},{"internalType":"uint256","name":"coin","type":"uint256"},{"internalType":"uint256","name":"start","type":"uint256"},{"internalType":"uint256","name":"end","type":"uint256"}],"name":"intToInd","outputs":[{"internalType":"uint256","name":"","type":"uint256"}],"stateMutability":"pure","type":"function"},{"inputs":[{"internalType":"string","name":"source","type":"string"}],"name":"stringToBytes32","outputs":[{"internalType":"bytes32","name":"result","type":"bytes32"}],"stateMutability":"pure","type":"function"},{"inputs":[{"components":[{"components":[{"internalType":"string","name":"signature","type":"string"},{"internalType":"uint256","name":"L","type":"uint256"},{"internalType":"uint256","name":"R","type":"uint256"},{"internalType":"string","name":"_r","type":"string"},{"internalType":"string","name":"_s","type":"string"},{"internalType":"uint8","name":"_v","type":"uint8"}],"internalType":"struct AttestorRegistry.Leaf","name":"sigTuple","type":"tuple"},{"internalType":"bytes32[]","name":"sigsProof","type":"bytes32[]"},{"internalType":"bytes","name":"attestorAddress","type":"bytes"},{"internalType":"bytes32[]","name":"attestorProof","type":"bytes32[]"},{"internalType":"bytes32","name":"msgHash","type":"bytes32"}],"internalType":"struct AttestorRegistry.T_entry[]","name":"T","type":"tuple[]"},{"internalType":"string","name":"sigsRoot","type":"string"},{"internalType":"uint256","name":"signedWeight","type":"uint256"},{"internalType":"uint256","name":"provenWeight","type":"uint256"}],"name":"verifyCertificate","outputs":[{"internalType":"bool","name":"","type":"bool"}],"stateMutability":"view","type":"function"}],"evm":{"bytecode":{"linkReferences":{},"object":"608060405234801561001057600080fd5b50611771806100206000396000f3fe608060405234801561001057600080fd5b506004361061007d5760003560e01c8063e0cae6351161005b578063e0cae63514610114578063e2902a5914610130578063e2d40c3c14610160578063ff4dd3f0146101905761007d565b8063a6656cb114610082578063b2db0d7c146100b3578063cfb51928146100e4575b600080fd5b61009c6004803603810190610097919061088f565b6101c0565b6040516100aa92919061090c565b60405180910390f35b6100cd60048036038101906100c8919061088f565b610264565b6040516100db92919061090c565b60405180910390f35b6100fe60048036038101906100f99190610a7b565b6102b8565b60405161010b9190610add565b60405180910390f35b61012e60048036038101906101299190610b24565b6102e1565b005b61014a60048036038101906101459190610b24565b610535565b6040516101579190610b6c565b60405180910390f35b61017a60048036038101906101759190610da4565b610555565b6040516101879190610e27565b60405180910390f35b6101aa60048036038101906101a591906111af565b610648565b6040516101b79190610b6c565b60405180910390f35b600080600180549050831061020a576040517f08c379a0000000000000000000000000000000000000000000000000000000008152600401610201906112ab565b60405180910390fd5b6000600184815481106102205761021f6112cb565b5b906000526020600020906002020190508060000160009054906101000a900473ffffffffffffffffffffffffffffffffffffffff1681600101549250925050915091565b6001818154811061027457600080fd5b90600052602060002090600202016000915090508060000160009054906101000a900473ffffffffffffffffffffffffffffffffffffffff16908060010154905082565b60008082905060008151036102d3576000801b9150506102dc565b60208301519150505b919050565b600073ffffffffffffffffffffffffffffffffffffffff168173ffffffffffffffffffffffffffffffffffffffff1603610350576040517f08c379a000000000000000000000000000000000000000000000000000000000815260040161034790611346565b60405180910390fd5b6000808273ffffffffffffffffffffffffffffffffffffffff1673ffffffffffffffffffffffffffffffffffffffff16815260200190815260200160002060009054906101000a900460ff16156103dc576040517f08c379a00000000000000000000000000000000000000000000000000000000081526004016103d3906113b2565b60405180910390fd5b60016000808373ffffffffffffffffffffffffffffffffffffffff1673ffffffffffffffffffffffffffffffffffffffff16815260200190815260200160002060006101000a81548160ff021916908315150217905550600060405180604001604052808373ffffffffffffffffffffffffffffffffffffffff16815260200160648152509050600181908060018154018082558091505060019003906000526020600020906002020160009091909190915060008201518160000160006101000a81548173ffffffffffffffffffffffffffffffffffffffff021916908373ffffffffffffffffffffffffffffffffffffffff1602179055506020820151816001015550508173ffffffffffffffffffffffffffffffffffffffff167f3048c9ea63a33da5ed9a73829970fa3c31e6a8b32bbc5747e24632f61c027e8e60016040516105299190611417565b60405180910390a25050565b60006020528060005260406000206000915054906101000a900460ff1681565b6000818311156105685760009050610640565b6000600283856105789190611461565b61058291906114c4565b905084868281518110610598576105976112cb565b5b602002602001015160200151111580156105d057508581815181106105c0576105bf6112cb565b5b6020026020010151604001518511155b156105de5780915050610640565b848682815181106105f2576105f16112cb565b5b60200260200101516020015111156106245761061c86868660018561061791906114f5565b610555565b915050610640565b61063c86866001846106369190611461565b86610555565b9150505b949350505050565b600081831161068c576040517f08c379a00000000000000000000000000000000000000000000000000000000081526004016106839061159b565b60405180910390fd5b60005b8551811015610789576107378682815181106106ae576106ad6112cb565b5b6020026020010151602001516106c3876102b8565b8884815181106106d6576106d56112cb565b5b602002602001015160000151600001516040516020016106f69190611629565b6040516020818303038152906040528051906020012060405160200161071c919061166c565b60405160208183030381529060405280519060200120610796565b610776576040517f08c379a000000000000000000000000000000000000000000000000000000000815260040161076d906116d3565b60405180910390fd5b8080610781906116f3565b91505061068f565b5060019050949350505050565b6000826107a385846107ad565b1490509392505050565b60008082905060005b84518110156107f8576107e3828683815181106107d6576107d56112cb565b5b6020026020010151610803565b915080806107f0906116f3565b9150506107b6565b508091505092915050565b600081831061081b57610816828461082e565b610826565b610825838361082e565b5b905092915050565b600082600052816020526040600020905092915050565b6000604051905090565b600080fd5b600080fd5b6000819050919050565b61086c81610859565b811461087757600080fd5b50565b60008135905061088981610863565b92915050565b6000602082840312156108a5576108a461084f565b5b60006108b38482850161087a565b91505092915050565b600073ffffffffffffffffffffffffffffffffffffffff82169050919050565b60006108e7826108bc565b9050919050565b6108f7816108dc565b82525050565b61090681610859565b82525050565b600060408201905061092160008301856108ee565b61092e60208301846108fd565b9392505050565b600080fd5b600080fd5b6000601f19601f8301169050919050565b7f4e487b7100000000000000000000000000000000000000000000000000000000600052604160045260246000fd5b6109888261093f565b810181811067ffffffffffffffff821117156109a7576109a6610950565b5b80604052505050565b60006109ba610845565b90506109c6828261097f565b919050565b600067ffffffffffffffff8211156109e6576109e5610950565b5b6109ef8261093f565b9050602081019050919050565b82818337600083830152505050565b6000610a1e610a19846109cb565b6109b0565b905082815260208101848484011115610a3a57610a3961093a565b5b610a458482856109fc565b509392505050565b600082601f830112610a6257610a61610935565b5b8135610a72848260208601610a0b565b91505092915050565b600060208284031215610a9157610a9061084f565b5b600082013567ffffffffffffffff811115610aaf57610aae610854565b5b610abb84828501610a4d565b91505092915050565b6000819050919050565b610ad781610ac4565b82525050565b6000602082019050610af26000830184610ace565b92915050565b610b01816108dc565b8114610b0c57600080fd5b50565b600081359050610b1e81610af8565b92915050565b600060208284031215610b3a57610b3961084f565b5b6000610b4884828501610b0f565b91505092915050565b60008115159050919050565b610b6681610b51565b82525050565b6000602082019050610b816000830184610b5d565b92915050565b600067ffffffffffffffff821115610ba257610ba1610950565b5b602082029050602081019050919050565b600080fd5b600080fd5b600080fd5b600060ff82169050919050565b610bd881610bc2565b8114610be357600080fd5b50565b600081359050610bf581610bcf565b92915050565b600060c08284031215610c1157610c10610bb8565b5b610c1b60c06109b0565b9050600082013567ffffffffffffffff811115610c3b57610c3a610bbd565b5b610c4784828501610a4d565b6000830152506020610c5b8482850161087a565b6020830152506040610c6f8482850161087a565b604083015250606082013567ffffffffffffffff811115610c9357610c92610bbd565b5b610c9f84828501610a4d565b606083015250608082013567ffffffffffffffff811115610cc357610cc2610bbd565b5b610ccf84828501610a4d565b60808301525060a0610ce384828501610be6565b60a08301525092915050565b6000610d02610cfd84610b87565b6109b0565b90508083825260208201905060208402830185811115610d2557610d24610bb3565b5b835b81811015610d6c57803567ffffffffffffffff811115610d4a57610d49610935565b5b808601610d578982610bfb565b85526020850194505050602081019050610d27565b5050509392505050565b600082601f830112610d8b57610d8a610935565b5b8135610d9b848260208601610cef565b91505092915050565b60008060008060808587031215610dbe57610dbd61084f565b5b600085013567ffffffffffffffff811115610ddc57610ddb610854565b5b610de887828801610d76565b9450506020610df98782880161087a565b9350506040610e0a8782880161087a565b9250506060610e1b8782880161087a565b91505092959194509250565b6000602082019050610e3c60008301846108fd565b92915050565b600067ffffffffffffffff821115610e5d57610e5c610950565b5b602082029050602081019050919050565b600067ffffffffffffffff821115610e8957610e88610950565b5b602082029050602081019050919050565b610ea381610ac4565b8114610eae57600080fd5b50565b600081359050610ec081610e9a565b92915050565b6000610ed9610ed484610e6e565b6109b0565b90508083825260208201905060208402830185811115610efc57610efb610bb3565b5b835b81811015610f255780610f118882610eb1565b845260208401935050602081019050610efe565b5050509392505050565b600082601f830112610f4457610f43610935565b5b8135610f54848260208601610ec6565b91505092915050565b600067ffffffffffffffff821115610f7857610f77610950565b5b610f818261093f565b9050602081019050919050565b6000610fa1610f9c84610f5d565b6109b0565b905082815260208101848484011115610fbd57610fbc61093a565b5b610fc88482856109fc565b509392505050565b600082601f830112610fe557610fe4610935565b5b8135610ff5848260208601610f8e565b91505092915050565b600060a0828403121561101457611013610bb8565b5b61101e60a06109b0565b9050600082013567ffffffffffffffff81111561103e5761103d610bbd565b5b61104a84828501610bfb565b600083015250602082013567ffffffffffffffff81111561106e5761106d610bbd565b5b61107a84828501610f2f565b602083015250604082013567ffffffffffffffff81111561109e5761109d610bbd565b5b6110aa84828501610fd0565b604083015250606082013567ffffffffffffffff8111156110ce576110cd610bbd565b5b6110da84828501610f2f565b60608301525060806110ee84828501610eb1565b60808301525092915050565b600061110d61110884610e42565b6109b0565b905080838252602082019050602084028301858111156111305761112f610bb3565b5b835b8181101561117757803567ffffffffffffffff81111561115557611154610935565b5b8086016111628982610ffe565b85526020850194505050602081019050611132565b5050509392505050565b600082601f83011261119657611195610935565b5b81356111a68482602086016110fa565b91505092915050565b600080600080608085870312156111c9576111c861084f565b5b600085013567ffffffffffffffff8111156111e7576111e6610854565b5b6111f387828801611181565b945050602085013567ffffffffffffffff81111561121457611213610854565b5b61122087828801610a4d565b93505060406112318782880161087a565b92505060606112428782880161087a565b91505092959194509250565b600082825260208201905092915050565b7f496e646578206f7574206f6620626f756e647300000000000000000000000000600082015250565b600061129560138361124e565b91506112a08261125f565b602082019050919050565b600060208201905081810360008301526112c481611288565b9050919050565b7f4e487b7100000000000000000000000000000000000000000000000000000000600052603260045260246000fd5b7f496e76616c696420616464726573730000000000000000000000000000000000600082015250565b6000611330600f8361124e565b915061133b826112fa565b602082019050919050565b6000602082019050818103600083015261135f81611323565b9050919050565b7f4174746573746f7220616c726561647920657869737473000000000000000000600082015250565b600061139c60178361124e565b91506113a782611366565b602082019050919050565b600060208201905081810360008301526113cb8161138f565b9050919050565b6000819050919050565b6000819050919050565b60006114016113fc6113f7846113d2565b6113dc565b610859565b9050919050565b611411816113e6565b82525050565b600060208201905061142c6000830184611408565b92915050565b7f4e487b7100000000000000000000000000000000000000000000000000000000600052601160045260246000fd5b600061146c82610859565b915061147783610859565b925082820190508082111561148f5761148e611432565b5b92915050565b7f4e487b7100000000000000000000000000000000000000000000000000000000600052601260045260246000fd5b60006114cf82610859565b91506114da83610859565b9250826114ea576114e9611495565b5b828204905092915050565b600061150082610859565b915061150b83610859565b925082820390508181111561152357611522611432565b5b92915050565b7f7369676e6564576569676874206e6f742067726561746572207468616e20707260008201527f6f76656e57656967687400000000000000000000000000000000000000000000602082015250565b6000611585602a8361124e565b915061159082611529565b604082019050919050565b600060208201905081810360008301526115b481611578565b9050919050565b600081519050919050565b60005b838110156115e45780820151818401526020810190506115c9565b60008484015250505050565b60006115fb826115bb565b611605818561124e565b93506116158185602086016115c6565b61161e8161093f565b840191505092915050565b6000602082019050818103600083015261164381846115f0565b905092915050565b6000819050919050565b61166661166182610ac4565b61164b565b82525050565b60006116788284611655565b60208201915081905092915050565b7f5369676e61747572652070726f6f66206661696c656400000000000000000000600082015250565b60006116bd60168361124e565b91506116c882611687565b602082019050919050565b600060208201905081810360008301526116ec816116b0565b9050919050565b60006116fe82610859565b91507fffffffffffffffffffffffffffffffffffffffffffffffffffffffffffffffff82036117305761172f611432565b5b60018201905091905056fea26469706673582212203c15f33f472ce40935d3978bf6944124be0fb548cb303300c17c4457a64f6f9264736f6c63430008140033","opcodes":"PUSH1 0x80 PUSH1 0x40 MSTORE CALLVALUE DUP1 ISZERO PUSH2 0x10 JUMPI PUSH1 0x0 DUP1 REVERT JUMPDEST POP PUSH2 0x1771 DUP1 PUSH2 0x20 PUSH1 0x0 CODECOPY PUSH1 0x0 RETURN INVALID PUSH1 0x80 PUSH1 0x40 MSTORE CALLVALUE DUP1 ISZERO PUSH2 0x10 JUMPI PUSH1 0x0 DUP1 REVERT JUMPDEST POP PUSH1 0x4 CALLDATASIZE LT PUSH2 0x7D JUMPI PUSH1 0x0 CALLDATALOAD PUSH1 0xE0 SHR DUP1 PUSH4 0xE0CAE635 GT PUSH2 0x5B JUMPI DUP1 PUSH4 0xE0CAE635 EQ PUSH2 0x114 JUMPI DUP1 PUSH4 0xE2902A59 EQ PUSH2 0x130 JUMPI DUP1 PUSH4 0xE2D40C3C EQ PUSH2 0x160 JUMPI DUP1 PUSH4 0xFF4DD3F0 EQ PUSH2 0x190 JUMPI PUSH2 0x7D JUMP JUMPDEST DUP1 PUSH4 0xA6656CB1 EQ PUSH2 0x82 JUMPI DUP1 PUSH4 0xB2DB0D7C EQ PUSH2 0xB3 JUMPI DUP1 PUSH4 0xCFB51928 EQ PUSH2 0xE4 JUMPI JUMPDEST PUSH1 0x0 DUP1 REVERT JUMPDEST PUSH2 0x9C PUSH1 0x4 DUP1 CALLDATASIZE SUB DUP2 ADD SWAP1 PUSH2 0x97 SWAP2 SWAP1 PUSH2 0x88F JUMP JUMPDEST PUSH2 0x1C0 JUMP JUMPDEST PUSH1 0x40 MLOAD PUSH2 0xAA SWAP3 SWAP2 SWAP1 PUSH2 0x90C JUMP JUMPDEST PUSH1 0x40 MLOAD DUP1 SWAP2 SUB SWAP1 RETURN JUMPDEST PUSH2 0xCD PUSH1 0x4 DUP1 CALLDATASIZE SUB DUP2 ADD SWAP1 PUSH2 0xC8 SWAP2 SWAP1 PUSH2 0x88F JUMP JUMPDEST PUSH2 0x264 JUMP JUMPDEST PUSH1 0x40 MLOAD PUSH2 0xDB SWAP3 SWAP2 SWAP1 PUSH2 0x90C JUMP JUMPDEST PUSH1 0x40 MLOAD DUP1 SWAP2 SUB SWAP1 RETURN JUMPDEST PUSH2 0xFE PUSH1 0x4 DUP1 CALLDATASIZE SUB DUP2 ADD SWAP1 PUSH2 0xF9 SWAP2 SWAP1 PUSH2 0xA7B JUMP JUMPDEST PUSH2 0x2B8 JUMP JUMPDEST PUSH1 0x40 MLOAD PUSH2 0x10B SWAP2 SWAP1 PUSH2 0xADD JUMP JUMPDEST PUSH1 0x40 MLOAD DUP1 SWAP2 SUB SWAP1 RETURN JUMPDEST PUSH2 0x12E PUSH1 0x4 DUP1 CALLDATASIZE SUB DUP2 ADD SWAP1 PUSH2 0x129 SWAP2 SWAP1 PUSH2 0xB24 JUMP JUMPDEST PUSH2 0x2E1 JUMP JUMPDEST STOP JUMPDEST PUSH2 0x14A PUSH1 0x4 DUP1 CALLDATASIZE SUB DUP2 ADD SWAP1 PUSH2 0x145 SWAP2 SWAP1 PUSH2 0xB24 JUMP JUMPDEST PUSH2 0x535 JUMP JUMPDEST PUSH1 0x40 MLOAD PUSH2 0x157 SWAP2 SWAP1 PUSH2 0xB6C JUMP JUMPDEST PUSH1 0x40 MLOAD DUP1 SWAP2 SUB SWAP1 RETURN JUMPDEST PUSH2 0x17A PUSH1 0x4 DUP1 CALLDATASIZE SUB DUP2 ADD SWAP1 PUSH2 0x175 SWAP2 SWAP1 PUSH2 0xDA4 JUMP JUMPDEST PUSH2 0x555 JUMP JUMPDEST PUSH1 0x40 MLOAD PUSH2 0x187 SWAP2 SWAP1 PUSH2 0xE27 JUMP JUMPDEST PUSH1 0x40 MLOAD DUP1 SWAP2 SUB SWAP1 RETURN JUMPDEST PUSH2 0x1AA PUSH1 0x4 DUP1 CALLDATASIZE SUB DUP2 ADD SWAP1 PUSH2 0x1A5 SWAP2 SWAP1 PUSH2 0x11AF JUMP JUMPDEST PUSH2 0x648 JUMP JUMPDEST PUSH1 0x40 MLOAD PUSH2 0x1B7 SWAP2 SWAP1 PUSH2 0xB6C JUMP JUMPDEST PUSH1 0x40 MLOAD DUP1 SWAP2 SUB SWAP1 RETURN JUMPDEST PUSH1 0x0 DUP1 PUSH1 0x1 DUP1 SLOAD SWAP1 POP DUP4 LT PUSH2 0x20A JUMPI PUSH1 0x40 MLOAD PUSH32 0x8C379A000000000000000000000000000000000000000000000000000000000 DUP2 MSTORE PUSH1 0x4 ADD PUSH2 0x201 SWAP1 PUSH2 0x12AB JUMP JUMPDEST PUSH1 0x40 MLOAD DUP1 SWAP2 SUB SWAP1 REVERT JUMPDEST PUSH1 0x0 PUSH1 0x1 DUP5 DUP2 SLOAD DUP2 LT PUSH2 0x220 JUMPI PUSH2 0x21F PUSH2 0x12CB JUMP JUMPDEST JUMPDEST SWAP1 PUSH1 0x0 MSTORE PUSH1 0x20 PUSH1 0x0 KECCAK256 SWAP1 PUSH1 0x2 MUL ADD SWAP1 POP DUP1 PUSH1 0x0 ADD PUSH1 0x0 SWAP1 SLOAD SWAP1 PUSH2 0x100 EXP SWAP1 DIV PUSH20 0xFFFFFFFFFFFFFFFFFFFFFFFFFFFFFFFFFFFFFFFF AND DUP2 PUSH1 0x1 ADD SLOAD SWAP3 POP SWAP3 POP POP SWAP2 POP SWAP2 JUMP JUMPDEST PUSH1 0x1 DUP2 DUP2 SLOAD DUP2 LT PUSH2 0x274 JUMPI PUSH1 0x0 DUP1 REVERT JUMPDEST SWAP1 PUSH1 0x0 MSTORE PUSH1 0x20 PUSH1 0x0 KECCAK256 SWAP1 PUSH1 0x2 MUL ADD PUSH1 0x0 SWAP2 POP SWAP1 POP DUP1 PUSH1 0x0 ADD PUSH1 0x0 SWAP1 SLOAD SWAP1 PUSH2 0x100 EXP SWAP1 DIV PUSH20 0xFFFFFFFFFFFFFFFFFFFFFFFFFFFFFFFFFFFFFFFF AND SWAP1 DUP1 PUSH1 0x1 ADD SLOAD SWAP1 POP DUP3 JUMP JUMPDEST PUSH1 0x0 DUP1 DUP3 SWAP1 POP PUSH1 0x0 DUP2 MLOAD SUB PUSH2 0x2D3 JUMPI PUSH1 0x0 DUP1 SHL SWAP2 POP POP PUSH2 0x2DC JUMP JUMPDEST PUSH1 0x20 DUP4 ADD MLOAD SWAP2 POP POP JUMPDEST SWAP2 SWAP1 POP JUMP JUMPDEST PUSH1 0x0 PUSH20 0xFFFFFFFFFFFFFFFFFFFFFFFFFFFFFFFFFFFFFFFF AND DUP2 PUSH20 0xFFFFFFFFFFFFFFFFFFFFFFFFFFFFFFFFFFFFFFFF AND SUB PUSH2 0x350 JUMPI PUSH1 0x40 MLOAD PUSH32 0x8C379A000000000000000000000000000000000000000000000000000000000 DUP2 MSTORE PUSH1 0x4 ADD PUSH2 0x347 SWAP1 PUSH2 0x1346 JUMP JUMPDEST PUSH1 0x40 MLOAD DUP1 SWAP2 SUB SWAP1 REVERT JUMPDEST PUSH1 0x0 DUP1 DUP3 PUSH20 0xFFFFFFFFFFFFFFFFFFFFFFFFFFFFFFFFFFFFFFFF AND PUSH20 0xFFFFFFFFFFFFFFFFFFFFFFFFFFFFFFFFFFFFFFFF AND DUP2 MSTORE PUSH1 0x20 ADD SWAP1 DUP2 MSTORE PUSH1 0x20 ADD PUSH1 0x0 KECCAK256 PUSH1 0x0 SWAP1 SLOAD SWAP1 PUSH2 0x100 EXP SWAP1 DIV PUSH1 0xFF AND ISZERO PUSH2 0x3DC JUMPI PUSH1 0x40 MLOAD PUSH32 0x8C379A000000000000000000000000000000000000000000000000000000000 DUP2 MSTORE PUSH1 0x4 ADD PUSH2 0x3D3 SWAP1 PUSH2 0x13B2 JUMP JUMPDEST PUSH1 0x40 MLOAD DUP1 SWAP2 SUB SWAP1 REVERT JUMPDEST PUSH1 0x1 PUSH1 0x0 DUP1 DUP4 PUSH20 0xFFFFFFFFFFFFFFFFFFFFFFFFFFFFFFFFFFFFFFFF AND PUSH20 0xFFFFFFFFFFFFFFFFFFFFFFFFFFFFFFFFFFFFFFFF AND DUP2 MSTORE PUSH1 0x20 ADD SWAP1 DUP2 MSTORE PUSH1 0x20 ADD PUSH1 0x0 KECCAK256 PUSH1 0x0 PUSH2 0x100 EXP DUP2 SLOAD DUP2 PUSH1 0xFF MUL NOT AND SWAP1 DUP4 ISZERO ISZERO MUL OR SWAP1 SSTORE POP PUSH1 0x0 PUSH1 0x40 MLOAD DUP1 PUSH1 0x40 ADD PUSH1 0x40 MSTORE DUP1 DUP4 PUSH20 0xFFFFFFFFFFFFFFFFFFFFFFFFFFFFFFFFFFFFFFFF AND DUP2 MSTORE PUSH1 0x20 ADD PUSH1 0x64 DUP2 MSTORE POP SWAP1 POP PUSH1 0x1 DUP2 SWAP1 DUP1 PUSH1 0x1 DUP2 SLOAD ADD DUP1 DUP3 SSTORE DUP1 SWAP2 POP POP PUSH1 0x1 SWAP1 SUB SWAP1 PUSH1 0x0 MSTORE PUSH1 0x20 PUSH1 0x0 KECCAK256 SWAP1 PUSH1 0x2 MUL ADD PUSH1 0x0 SWAP1 SWAP2 SWAP1 SWAP2 SWAP1 SWAP2 POP PUSH1 0x0 DUP3 ADD MLOAD DUP2 PUSH1 0x0 ADD PUSH1 0x0 PUSH2 0x100 EXP DUP2 SLOAD DUP2 PUSH20 0xFFFFFFFFFFFFFFFFFFFFFFFFFFFFFFFFFFFFFFFF MUL NOT AND SWAP1 DUP4 PUSH20 0xFFFFFFFFFFFFFFFFFFFFFFFFFFFFFFFFFFFFFFFF AND MUL OR SWAP1 SSTORE POP PUSH1 0x20 DUP3 ADD MLOAD DUP2 PUSH1 0x1 ADD SSTORE POP POP DUP2 PUSH20 0xFFFFFFFFFFFFFFFFFFFFFFFFFFFFFFFFFFFFFFFF AND PUSH32 0x3048C9EA63A33DA5ED9A73829970FA3C31E6A8B32BBC5747E24632F61C027E8E PUSH1 0x1 PUSH1 0x40 MLOAD PUSH2 0x529 SWAP2 SWAP1 PUSH2 0x1417 JUMP JUMPDEST PUSH1 0x40 MLOAD DUP1 SWAP2 SUB SWAP1 LOG2 POP POP JUMP JUMPDEST PUSH1 0x0 PUSH1 0x20 MSTORE DUP1 PUSH1 0x0 MSTORE PUSH1 0x40 PUSH1 0x0 KECCAK256 PUSH1 0x0 SWAP2 POP SLOAD SWAP1 PUSH2 0x100 EXP SWAP1 DIV PUSH1 0xFF AND DUP2 JUMP JUMPDEST PUSH1 0x0 DUP2 DUP4 GT ISZERO PUSH2 0x568 JUMPI PUSH1 0x0 SWAP1 POP PUSH2 0x640 JUMP JUMPDEST PUSH1 0x0 PUSH1 0x2 DUP4 DUP6 PUSH2 0x578 SWAP2 SWAP1 PUSH2 0x1461 JUMP JUMPDEST PUSH2 0x582 SWAP2 SWAP1 PUSH2 0x14C4 JUMP JUMPDEST SWAP1 POP DUP5 DUP7 DUP3 DUP2 MLOAD DUP2 LT PUSH2 0x598 JUMPI PUSH2 0x597 PUSH2 0x12CB JUMP JUMPDEST JUMPDEST PUSH1 0x20 MUL PUSH1 0x20 ADD ADD MLOAD PUSH1 0x20 ADD MLOAD GT ISZERO DUP1 ISZERO PUSH2 0x5D0 JUMPI POP DUP6 DUP2 DUP2 MLOAD DUP2 LT PUSH2 0x5C0 JUMPI PUSH2 0x5BF PUSH2 0x12CB JUMP JUMPDEST JUMPDEST PUSH1 0x20 MUL PUSH1 0x20 ADD ADD MLOAD PUSH1 0x40 ADD MLOAD DUP6 GT ISZERO JUMPDEST ISZERO PUSH2 0x5DE JUMPI DUP1 SWAP2 POP POP PUSH2 0x640 JUMP JUMPDEST DUP5 DUP7 DUP3 DUP2 MLOAD DUP2 LT PUSH2 0x5F2 JUMPI PUSH2 0x5F1 PUSH2 0x12CB JUMP JUMPDEST JUMPDEST PUSH1 0x20 MUL PUSH1 0x20 ADD ADD MLOAD PUSH1 0x20 ADD MLOAD GT ISZERO PUSH2 0x624 JUMPI PUSH2 0x61C DUP7 DUP7 DUP7 PUSH1 0x1 DUP6 PUSH2 0x617 SWAP2 SWAP1 PUSH2 0x14F5 JUMP JUMPDEST PUSH2 0x555 JUMP JUMPDEST SWAP2 POP POP PUSH2 0x640 JUMP JUMPDEST PUSH2 0x63C DUP7 DUP7 PUSH1 0x1 DUP5 PUSH2 0x636 SWAP2 SWAP1 PUSH2 0x1461 JUMP JUMPDEST DUP7 PUSH2 0x555 JUMP JUMPDEST SWAP2 POP POP JUMPDEST SWAP5 SWAP4 POP POP POP POP JUMP JUMPDEST PUSH1 0x0 DUP2 DUP4 GT PUSH2 0x68C JUMPI PUSH1 0x40 MLOAD PUSH32 0x8C379A000000000000000000000000000000000000000000000000000000000 DUP2 MSTORE PUSH1 0x4 ADD PUSH2 0x683 SWAP1 PUSH2 0x159B JUMP JUMPDEST PUSH1 0x40 MLOAD DUP1 SWAP2 SUB SWAP1 REVERT JUMPDEST PUSH1 0x0 JUMPDEST DUP6 MLOAD DUP2 LT ISZERO PUSH2 0x789 JUMPI PUSH2 0x737 DUP7 DUP3 DUP2 MLOAD DUP2 LT PUSH2 0x6AE JUMPI PUSH2 0x6AD PUSH2 0x12CB JUMP JUMPDEST JUMPDEST PUSH1 0x20 MUL PUSH1 0x20 ADD ADD MLOAD PUSH1 0x20 ADD MLOAD PUSH2 0x6C3 DUP8 PUSH2 0x2B8 JUMP JUMPDEST DUP9 DUP5 DUP2 MLOAD DUP2 LT PUSH2 0x6D6 JUMPI PUSH2 0x6D5 PUSH2 0x12CB JUMP JUMPDEST JUMPDEST PUSH1 0x20 MUL PUSH1 0x20 ADD ADD MLOAD PUSH1 0x0 ADD MLOAD PUSH1 0x0 ADD MLOAD PUSH1 0x40 MLOAD PUSH1 0x20 ADD PUSH2 0x6F6 SWAP2 SWAP1 PUSH2 0x1629 JUMP JUMPDEST PUSH1 0x40 MLOAD PUSH1 0x20 DUP2 DUP4 SUB SUB DUP2 MSTORE SWAP1 PUSH1 0x40 MSTORE DUP1 MLOAD SWAP1 PUSH1 0x20 ADD KECCAK256 PUSH1 0x40 MLOAD PUSH1 0x20 ADD PUSH2 0x71C SWAP2 SWAP1 PUSH2 0x166C JUMP JUMPDEST PUSH1 0x40 MLOAD PUSH1 0x20 DUP2 DUP4 SUB SUB DUP2 MSTORE SWAP1 PUSH1 0x40 MSTORE DUP1 MLOAD SWAP1 PUSH1 0x20 ADD KECCAK256 PUSH2 0x796 JUMP JUMPDEST PUSH2 0x776 JUMPI PUSH1 0x40 MLOAD PUSH32 0x8C379A000000000000000000000000000000000000000000000000000000000 DUP2 MSTORE PUSH1 0x4 ADD PUSH2 0x76D SWAP1 PUSH2 0x16D3 JUMP JUMPDEST PUSH1 0x40 MLOAD DUP1 SWAP2 SUB SWAP1 REVERT JUMPDEST DUP1 DUP1 PUSH2 0x781 SWAP1 PUSH2 0x16F3 JUMP JUMPDEST SWAP2 POP POP PUSH2 0x68F JUMP JUMPDEST POP PUSH1 0x1 SWAP1 POP SWAP5 SWAP4 POP POP POP POP JUMP JUMPDEST PUSH1 0x0 DUP3 PUSH2 0x7A3 DUP6 DUP5 PUSH2 0x7AD JUMP JUMPDEST EQ SWAP1 POP SWAP4 SWAP3 POP POP POP JUMP JUMPDEST PUSH1 0x0 DUP1 DUP3 SWAP1 POP PUSH1 0x0 JUMPDEST DUP5 MLOAD DUP2 LT ISZERO PUSH2 0x7F8 JUMPI PUSH2 0x7E3 DUP3 DUP7 DUP4 DUP2 MLOAD DUP2 LT PUSH2 0x7D6 JUMPI PUSH2 0x7D5 PUSH2 0x12CB JUMP JUMPDEST JUMPDEST PUSH1 0x20 MUL PUSH1 0x20 ADD ADD MLOAD PUSH2 0x803 JUMP JUMPDEST SWAP2 POP DUP1 DUP1 PUSH2 0x7F0 SWAP1 PUSH2 0x16F3 JUMP JUMPDEST SWAP2 POP POP PUSH2 0x7B6 JUMP JUMPDEST POP DUP1 SWAP2 POP POP SWAP3 SWAP2 POP POP JUMP JUMPDEST PUSH1 0x0 DUP2 DUP4 LT PUSH2 0x81B JUMPI PUSH2 0x816 DUP3 DUP5 PUSH2 0x82E JUMP JUMPDEST PUSH2 0x826 JUMP JUMPDEST PUSH2 0x825 DUP4 DUP4 PUSH2 0x82E JUMP JUMPDEST JUMPDEST SWAP1 POP SWAP3 SWAP2 POP POP JUMP JUMPDEST PUSH1 0x0 DUP3 PUSH1 0x0 MSTORE DUP2 PUSH1 0x20 MSTORE PUSH1 0x40 PUSH1 0x0 KECCAK256 SWAP1 POP SWAP3 SWAP2 POP POP JUMP JUMPDEST PUSH1 0x0 PUSH1 0x40 MLOAD SWAP1 POP SWAP1 JUMP JUMPDEST PUSH1 0x0 DUP1 REVERT JUMPDEST PUSH1 0x0 DUP1 REVERT JUMPDEST PUSH1 0x0 DUP2 SWAP1 POP SWAP2 SWAP1 POP JUMP JUMPDEST PUSH2 0x86C DUP2 PUSH2 0x859 JUMP JUMPDEST DUP2 EQ PUSH2 0x877 JUMPI PUSH1 0x0 DUP1 REVERT JUMPDEST POP JUMP JUMPDEST PUSH1 0x0 DUP2 CALLDATALOAD SWAP1 POP PUSH2 0x889 DUP2 PUSH2 0x863 JUMP JUMPDEST SWAP3 SWAP2 POP POP JUMP JUMPDEST PUSH1 0x0 PUSH1 0x20 DUP3 DUP5 SUB SLT ISZERO PUSH2 0x8A5 JUMPI PUSH2 0x8A4 PUSH2 0x84F JUMP JUMPDEST JUMPDEST PUSH1 0x0 PUSH2 0x8B3 DUP5 DUP3 DUP6 ADD PUSH2 0x87A JUMP JUMPDEST SWAP2 POP POP SWAP3 SWAP2 POP POP JUMP JUMPDEST PUSH1 0x0 PUSH20 0xFFFFFFFFFFFFFFFFFFFFFFFFFFFFFFFFFFFFFFFF DUP3 AND SWAP1 POP SWAP2 SWAP1 POP JUMP JUMPDEST PUSH1 0x0 PUSH2 0x8E7 DUP3 PUSH2 0x8BC JUMP JUMPDEST SWAP1 POP SWAP2 SWAP1 POP JUMP JUMPDEST PUSH2 0x8F7 DUP2 PUSH2 0x8DC JUMP JUMPDEST DUP3 MSTORE POP POP JUMP JUMPDEST PUSH2 0x906 DUP2 PUSH2 0x859 JUMP JUMPDEST DUP3 MSTORE POP POP JUMP JUMPDEST PUSH1 0x0 PUSH1 0x40 DUP3 ADD SWAP1 POP PUSH2 0x921 PUSH1 0x0 DUP4 ADD DUP6 PUSH2 0x8EE JUMP JUMPDEST PUSH2 0x92E PUSH1 0x20 DUP4 ADD DUP5 PUSH2 0x8FD JUMP JUMPDEST SWAP4 SWAP3 POP POP POP JUMP JUMPDEST PUSH1 0x0 DUP1 REVERT JUMPDEST PUSH1 0x0 DUP1 REVERT JUMPDEST PUSH1 0x0 PUSH1 0x1F NOT PUSH1 0x1F DUP4 ADD AND SWAP1 POP SWAP2 SWAP1 POP JUMP JUMPDEST PUSH32 0x4E487B7100000000000000000000000000000000000000000000000000000000 PUSH1 0x0 MSTORE PUSH1 0x41 PUSH1 0x4 MSTORE PUSH1 0x24 PUSH1 0x0 REVERT JUMPDEST PUSH2 0x988 DUP3 PUSH2 0x93F JUMP JUMPDEST DUP2 ADD DUP2 DUP2 LT PUSH8 0xFFFFFFFFFFFFFFFF DUP3 GT OR ISZERO PUSH2 0x9A7 JUMPI PUSH2 0x9A6 PUSH2 0x950 JUMP JUMPDEST JUMPDEST DUP1 PUSH1 0x40 MSTORE POP POP POP JUMP JUMPDEST PUSH1 0x0 PUSH2 0x9BA PUSH2 0x845 JUMP JUMPDEST SWAP1 POP PUSH2 0x9C6 DUP3 DUP3 PUSH2 0x97F JUMP JUMPDEST SWAP2 SWAP1 POP JUMP JUMPDEST PUSH1 0x0 PUSH8 0xFFFFFFFFFFFFFFFF DUP3 GT ISZERO PUSH2 0x9E6 JUMPI PUSH2 0x9E5 PUSH2 0x950 JUMP JUMPDEST JUMPDEST PUSH2 0x9EF DUP3 PUSH2 0x93F JUMP JUMPDEST SWAP1 POP PUSH1 0x20 DUP2 ADD SWAP1 POP SWAP2 SWAP1 POP JUMP JUMPDEST DUP3 DUP2 DUP4 CALLDATACOPY PUSH1 0x0 DUP4 DUP4 ADD MSTORE POP POP POP JUMP JUMPDEST PUSH1 0x0 PUSH2 0xA1E PUSH2 0xA19 DUP5 PUSH2 0x9CB JUMP JUMPDEST PUSH2 0x9B0 JUMP JUMPDEST SWAP1 POP DUP3 DUP2 MSTORE PUSH1 0x20 DUP2 ADD DUP5 DUP5 DUP5 ADD GT ISZERO PUSH2 0xA3A JUMPI PUSH2 0xA39 PUSH2 0x93A JUMP JUMPDEST JUMPDEST PUSH2 0xA45 DUP5 DUP3 DUP6 PUSH2 0x9FC JUMP JUMPDEST POP SWAP4 SWAP3 POP POP POP JUMP JUMPDEST PUSH1 0x0 DUP3 PUSH1 0x1F DUP4 ADD SLT PUSH2 0xA62 JUMPI PUSH2 0xA61 PUSH2 0x935 JUMP JUMPDEST JUMPDEST DUP2 CALLDATALOAD PUSH2 0xA72 DUP5 DUP3 PUSH1 0x20 DUP7 ADD PUSH2 0xA0B JUMP JUMPDEST SWAP2 POP POP SWAP3 SWAP2 POP POP JUMP JUMPDEST PUSH1 0x0 PUSH1 0x20 DUP3 DUP5 SUB SLT ISZERO PUSH2 0xA91 JUMPI PUSH2 0xA90 PUSH2 0x84F JUMP JUMPDEST JUMPDEST PUSH1 0x0 DUP3 ADD CALLDATALOAD PUSH8 0xFFFFFFFFFFFFFFFF DUP2 GT ISZERO PUSH2 0xAAF JUMPI PUSH2 0xAAE PUSH2 0x854 JUMP JUMPDEST JUMPDEST PUSH2 0xABB DUP5 DUP3 DUP6 ADD PUSH2 0xA4D JUMP JUMPDEST SWAP2 POP POP SWAP3 SWAP2 POP POP JUMP JUMPDEST PUSH1 0x0 DUP2 SWAP1 POP SWAP2 SWAP1 POP JUMP JUMPDEST PUSH2 0xAD7 DUP2 PUSH2 0xAC4 JUMP JUMPDEST DUP3 MSTORE POP POP JUMP JUMPDEST PUSH1 0x0 PUSH1 0x20 DUP3 ADD SWAP1 POP PUSH2 0xAF2 PUSH1 0x0 DUP4 ADD DUP5 PUSH2 0xACE JUMP JUMPDEST SWAP3 SWAP2 POP POP JUMP JUMPDEST PUSH2 0xB01 DUP2 PUSH2 0x8DC JUMP JUMPDEST DUP2 EQ PUSH2 0xB0C JUMPI PUSH1 0x0 DUP1 REVERT JUMPDEST POP JUMP JUMPDEST PUSH1 0x0 DUP2 CALLDATALOAD SWAP1 POP PUSH2 0xB1E DUP2 PUSH2 0xAF8 JUMP JUMPDEST SWAP3 SWAP2 POP POP JUMP JUMPDEST PUSH1 0x0 PUSH1 0x20 DUP3 DUP5 SUB SLT ISZERO PUSH2 0xB3A JUMPI PUSH2 0xB39 PUSH2 0x84F JUMP JUMPDEST JUMPDEST PUSH1 0x0 PUSH2 0xB48 DUP5 DUP3 DUP6 ADD PUSH2 0xB0F JUMP JUMPDEST SWAP2 POP POP SWAP3 SWAP2 POP POP JUMP JUMPDEST PUSH1 0x0 DUP2 ISZERO ISZERO SWAP1 POP SWAP2 SWAP1 POP JUMP JUMPDEST PUSH2 0xB66 DUP2 PUSH2 0xB51 JUMP JUMPDEST DUP3 MSTORE POP POP JUMP JUMPDEST PUSH1 0x0 PUSH1 0x20 DUP3 ADD SWAP1 POP PUSH2 0xB81 PUSH1 0x0 DUP4 ADD DUP5 PUSH2 0xB5D JUMP JUMPDEST SWAP3 SWAP2 POP POP JUMP JUMPDEST PUSH1 0x0 PUSH8 0xFFFFFFFFFFFFFFFF DUP3 GT ISZERO PUSH2 0xBA2 JUMPI PUSH2 0xBA1 PUSH2 0x950 JUMP JUMPDEST JUMPDEST PUSH1 0x20 DUP3 MUL SWAP1 POP PUSH1 0x20 DUP2 ADD SWAP1 POP SWAP2 SWAP1 POP JUMP JUMPDEST PUSH1 0x0 DUP1 REVERT JUMPDEST PUSH1 0x0 DUP1 REVERT JUMPDEST PUSH1 0x0 DUP1 REVERT JUMPDEST PUSH1 0x0 PUSH1 0xFF DUP3 AND SWAP1 POP SWAP2 SWAP1 POP JUMP JUMPDEST PUSH2 0xBD8 DUP2 PUSH2 0xBC2 JUMP JUMPDEST DUP2 EQ PUSH2 0xBE3 JUMPI PUSH1 0x0 DUP1 REVERT JUMPDEST POP JUMP JUMPDEST PUSH1 0x0 DUP2 CALLDATALOAD SWAP1 POP PUSH2 0xBF5 DUP2 PUSH2 0xBCF JUMP JUMPDEST SWAP3 SWAP2 POP POP JUMP JUMPDEST PUSH1 0x0 PUSH1 0xC0 DUP3 DUP5 SUB SLT ISZERO PUSH2 0xC11 JUMPI PUSH2 0xC10 PUSH2 0xBB8 JUMP JUMPDEST JUMPDEST PUSH2 0xC1B PUSH1 0xC0 PUSH2 0x9B0 JUMP JUMPDEST SWAP1 POP PUSH1 0x0 DUP3 ADD CALLDATALOAD PUSH8 0xFFFFFFFFFFFFFFFF DUP2 GT ISZERO PUSH2 0xC3B JUMPI PUSH2 0xC3A PUSH2 0xBBD JUMP JUMPDEST JUMPDEST PUSH2 0xC47 DUP5 DUP3 DUP6 ADD PUSH2 0xA4D JUMP JUMPDEST PUSH1 0x0 DUP4 ADD MSTORE POP PUSH1 0x20 PUSH2 0xC5B DUP5 DUP3 DUP6 ADD PUSH2 0x87A JUMP JUMPDEST PUSH1 0x20 DUP4 ADD MSTORE POP PUSH1 0x40 PUSH2 0xC6F DUP5 DUP3 DUP6 ADD PUSH2 0x87A JUMP JUMPDEST PUSH1 0x40 DUP4 ADD MSTORE POP PUSH1 0x60 DUP3 ADD CALLDATALOAD PUSH8 0xFFFFFFFFFFFFFFFF DUP2 GT ISZERO PUSH2 0xC93 JUMPI PUSH2 0xC92 PUSH2 0xBBD JUMP JUMPDEST JUMPDEST PUSH2 0xC9F DUP5 DUP3 DUP6 ADD PUSH2 0xA4D JUMP JUMPDEST PUSH1 0x60 DUP4 ADD MSTORE POP PUSH1 0x80 DUP3 ADD CALLDATALOAD PUSH8 0xFFFFFFFFFFFFFFFF DUP2 GT ISZERO PUSH2 0xCC3 JUMPI PUSH2 0xCC2 PUSH2 0xBBD JUMP JUMPDEST JUMPDEST PUSH2 0xCCF DUP5 DUP3 DUP6 ADD PUSH2 0xA4D JUMP JUMPDEST PUSH1 0x80 DUP4 ADD MSTORE POP PUSH1 0xA0 PUSH2 0xCE3 DUP5 DUP3 DUP6 ADD PUSH2 0xBE6 JUMP JUMPDEST PUSH1 0xA0 DUP4 ADD MSTORE POP SWAP3 SWAP2 POP POP JUMP JUMPDEST PUSH1 0x0 PUSH2 0xD02 PUSH2 0xCFD DUP5 PUSH2 0xB87 JUMP JUMPDEST PUSH2 0x9B0 JUMP JUMPDEST SWAP1 POP DUP1 DUP4 DUP3 MSTORE PUSH1 0x20 DUP3 ADD SWAP1 POP PUSH1 0x20 DUP5 MUL DUP4 ADD DUP6 DUP2 GT ISZERO PUSH2 0xD25 JUMPI PUSH2 0xD24 PUSH2 0xBB3 JUMP JUMPDEST JUMPDEST DUP4 JUMPDEST DUP2 DUP2 LT ISZERO PUSH2 0xD6C JUMPI DUP1 CALLDATALOAD PUSH8 0xFFFFFFFFFFFFFFFF DUP2 GT ISZERO PUSH2 0xD4A JUMPI PUSH2 0xD49 PUSH2 0x935 JUMP JUMPDEST JUMPDEST DUP1 DUP7 ADD PUSH2 0xD57 DUP10 DUP3 PUSH2 0xBFB JUMP JUMPDEST DUP6 MSTORE PUSH1 0x20 DUP6 ADD SWAP5 POP POP POP PUSH1 0x20 DUP2 ADD SWAP1 POP PUSH2 0xD27 JUMP JUMPDEST POP POP POP SWAP4 SWAP3 POP POP POP JUMP JUMPDEST PUSH1 0x0 DUP3 PUSH1 0x1F DUP4 ADD SLT PUSH2 0xD8B JUMPI PUSH2 0xD8A PUSH2 0x935 JUMP JUMPDEST JUMPDEST DUP2 CALLDATALOAD PUSH2 0xD9B DUP5 DUP3 PUSH1 0x20 DUP7 ADD PUSH2 0xCEF JUMP JUMPDEST SWAP2 POP POP SWAP3 SWAP2 POP POP JUMP JUMPDEST PUSH1 0x0 DUP1 PUSH1 0x0 DUP1 PUSH1 0x80 DUP6 DUP8 SUB SLT ISZERO PUSH2 0xDBE JUMPI PUSH2 0xDBD PUSH2 0x84F JUMP JUMPDEST JUMPDEST PUSH1 0x0 DUP6 ADD CALLDATALOAD PUSH8 0xFFFFFFFFFFFFFFFF DUP2 GT ISZERO PUSH2 0xDDC JUMPI PUSH2 0xDDB PUSH2 0x854 JUMP JUMPDEST JUMPDEST PUSH2 0xDE8 DUP8 DUP3 DUP9 ADD PUSH2 0xD76 JUMP JUMPDEST SWAP5 POP POP PUSH1 0x20 PUSH2 0xDF9 DUP8 DUP3 DUP9 ADD PUSH2 0x87A JUMP JUMPDEST SWAP4 POP POP PUSH1 0x40 PUSH2 0xE0A DUP8 DUP3 DUP9 ADD PUSH2 0x87A JUMP JUMPDEST SWAP3 POP POP PUSH1 0x60 PUSH2 0xE1B DUP8 DUP3 DUP9 ADD PUSH2 0x87A JUMP JUMPDEST SWAP2 POP POP SWAP3 SWAP6 SWAP2 SWAP5 POP SWAP3 POP JUMP JUMPDEST PUSH1 0x0 PUSH1 0x20 DUP3 ADD SWAP1 POP PUSH2 0xE3C PUSH1 0x0 DUP4 ADD DUP5 PUSH2 0x8FD JUMP JUMPDEST SWAP3 SWAP2 POP POP JUMP JUMPDEST PUSH1 0x0 PUSH8 0xFFFFFFFFFFFFFFFF DUP3 GT ISZERO PUSH2 0xE5D JUMPI PUSH2 0xE5C PUSH2 0x950 JUMP JUMPDEST JUMPDEST PUSH1 0x20 DUP3 MUL SWAP1 POP PUSH1 0x20 DUP2 ADD SWAP1 POP SWAP2 SWAP1 POP JUMP JUMPDEST PUSH1 0x0 PUSH8 0xFFFFFFFFFFFFFFFF DUP3 GT ISZERO PUSH2 0xE89 JUMPI PUSH2 0xE88 PUSH2 0x950 JUMP JUMPDEST JUMPDEST PUSH1 0x20 DUP3 MUL SWAP1 POP PUSH1 0x20 DUP2 ADD SWAP1 POP SWAP2 SWAP1 POP JUMP JUMPDEST PUSH2 0xEA3 DUP2 PUSH2 0xAC4 JUMP JUMPDEST DUP2 EQ PUSH2 0xEAE JUMPI PUSH1 0x0 DUP1 REVERT JUMPDEST POP JUMP JUMPDEST PUSH1 0x0 DUP2 CALLDATALOAD SWAP1 POP PUSH2 0xEC0 DUP2 PUSH2 0xE9A JUMP JUMPDEST SWAP3 SWAP2 POP POP JUMP JUMPDEST PUSH1 0x0 PUSH2 0xED9 PUSH2 0xED4 DUP5 PUSH2 0xE6E JUMP JUMPDEST PUSH2 0x9B0 JUMP JUMPDEST SWAP1 POP DUP1 DUP4 DUP3 MSTORE PUSH1 0x20 DUP3 ADD SWAP1 POP PUSH1 0x20 DUP5 MUL DUP4 ADD DUP6 DUP2 GT ISZERO PUSH2 0xEFC JUMPI PUSH2 0xEFB PUSH2 0xBB3 JUMP JUMPDEST JUMPDEST DUP4 JUMPDEST DUP2 DUP2 LT ISZERO PUSH2 0xF25 JUMPI DUP1 PUSH2 0xF11 DUP9 DUP3 PUSH2 0xEB1 JUMP JUMPDEST DUP5 MSTORE PUSH1 0x20 DUP5 ADD SWAP4 POP POP PUSH1 0x20 DUP2 ADD SWAP1 POP PUSH2 0xEFE JUMP JUMPDEST POP POP POP SWAP4 SWAP3 POP POP POP JUMP JUMPDEST PUSH1 0x0 DUP3 PUSH1 0x1F DUP4 ADD SLT PUSH2 0xF44 JUMPI PUSH2 0xF43 PUSH2 0x935 JUMP JUMPDEST JUMPDEST DUP2 CALLDATALOAD PUSH2 0xF54 DUP5 DUP3 PUSH1 0x20 DUP7 ADD PUSH2 0xEC6 JUMP JUMPDEST SWAP2 POP POP SWAP3 SWAP2 POP POP JUMP JUMPDEST PUSH1 0x0 PUSH8 0xFFFFFFFFFFFFFFFF DUP3 GT ISZERO PUSH2 0xF78 JUMPI PUSH2 0xF77 PUSH2 0x950 JUMP JUMPDEST JUMPDEST PUSH2 0xF81 DUP3 PUSH2 0x93F JUMP JUMPDEST SWAP1 POP PUSH1 0x20 DUP2 ADD SWAP1 POP SWAP2 SWAP1 POP JUMP JUMPDEST PUSH1 0x0 PUSH2 0xFA1 PUSH2 0xF9C DUP5 PUSH2 0xF5D JUMP JUMPDEST PUSH2 0x9B0 JUMP JUMPDEST SWAP1 POP DUP3 DUP2 MSTORE PUSH1 0x20 DUP2 ADD DUP5 DUP5 DUP5 ADD GT ISZERO PUSH2 0xFBD JUMPI PUSH2 0xFBC PUSH2 0x93A JUMP JUMPDEST JUMPDEST PUSH2 0xFC8 DUP5 DUP3 DUP6 PUSH2 0x9FC JUMP JUMPDEST POP SWAP4 SWAP3 POP POP POP JUMP JUMPDEST PUSH1 0x0 DUP3 PUSH1 0x1F DUP4 ADD SLT PUSH2 0xFE5 JUMPI PUSH2 0xFE4 PUSH2 0x935 JUMP JUMPDEST JUMPDEST DUP2 CALLDATALOAD PUSH2 0xFF5 DUP5 DUP3 PUSH1 0x20 DUP7 ADD PUSH2 0xF8E JUMP JUMPDEST SWAP2 POP POP SWAP3 SWAP2 POP POP JUMP JUMPDEST PUSH1 0x0 PUSH1 0xA0 DUP3 DUP5 SUB SLT ISZERO PUSH2 0x1014 JUMPI PUSH2 0x1013 PUSH2 0xBB8 JUMP JUMPDEST JUMPDEST PUSH2 0x101E PUSH1 0xA0 PUSH2 0x9B0 JUMP JUMPDEST SWAP1 POP PUSH1 0x0 DUP3 ADD CALLDATALOAD PUSH8 0xFFFFFFFFFFFFFFFF DUP2 GT ISZERO PUSH2 0x103E JUMPI PUSH2 0x103D PUSH2 0xBBD JUMP JUMPDEST JUMPDEST PUSH2 0x104A DUP5 DUP3 DUP6 ADD PUSH2 0xBFB JUMP JUMPDEST PUSH1 0x0 DUP4 ADD MSTORE POP PUSH1 0x20 DUP3 ADD CALLDATALOAD PUSH8 0xFFFFFFFFFFFFFFFF DUP2 GT ISZERO PUSH2 0x106E JUMPI PUSH2 0x106D PUSH2 0xBBD JUMP JUMPDEST JUMPDEST PUSH2 0x107A DUP5 DUP3 DUP6 ADD PUSH2 0xF2F JUMP JUMPDEST PUSH1 0x20 DUP4 ADD MSTORE POP PUSH1 0x40 DUP3 ADD CALLDATALOAD PUSH8 0xFFFFFFFFFFFFFFFF DUP2 GT ISZERO PUSH2 0x109E JUMPI PUSH2 0x109D PUSH2 0xBBD JUMP JUMPDEST JUMPDEST PUSH2 0x10AA DUP5 DUP3 DUP6 ADD PUSH2 0xFD0 JUMP JUMPDEST PUSH1 0x40 DUP4 ADD MSTORE POP PUSH1 0x60 DUP3 ADD CALLDATALOAD PUSH8 0xFFFFFFFFFFFFFFFF DUP2 GT ISZERO PUSH2 0x10CE JUMPI PUSH2 0x10CD PUSH2 0xBBD JUMP JUMPDEST JUMPDEST PUSH2 0x10DA DUP5 DUP3 DUP6 ADD PUSH2 0xF2F JUMP JUMPDEST PUSH1 0x60 DUP4 ADD MSTORE POP PUSH1 0x80 PUSH2 0x10EE DUP5 DUP3 DUP6 ADD PUSH2 0xEB1 JUMP JUMPDEST PUSH1 0x80 DUP4 ADD MSTORE POP SWAP3 SWAP2 POP POP JUMP JUMPDEST PUSH1 0x0 PUSH2 0x110D PUSH2 0x1108 DUP5 PUSH2 0xE42 JUMP JUMPDEST PUSH2 0x9B0 JUMP JUMPDEST SWAP1 POP DUP1 DUP4 DUP3 MSTORE PUSH1 0x20 DUP3 ADD SWAP1 POP PUSH1 0x20 DUP5 MUL DUP4 ADD DUP6 DUP2 GT ISZERO PUSH2 0x1130 JUMPI PUSH2 0x112F PUSH2 0xBB3 JUMP JUMPDEST JUMPDEST DUP4 JUMPDEST DUP2 DUP2 LT ISZERO PUSH2 0x1177 JUMPI DUP1 CALLDATALOAD PUSH8 0xFFFFFFFFFFFFFFFF DUP2 GT ISZERO PUSH2 0x1155 JUMPI PUSH2 0x1154 PUSH2 0x935 JUMP JUMPDEST JUMPDEST DUP1 DUP7 ADD PUSH2 0x1162 DUP10 DUP3 PUSH2 0xFFE JUMP JUMPDEST DUP6 MSTORE PUSH1 0x20 DUP6 ADD SWAP5 POP POP POP PUSH1 0x20 DUP2 ADD SWAP1 POP PUSH2 0x1132 JUMP JUMPDEST POP POP POP SWAP4 SWAP3 POP POP POP JUMP JUMPDEST PUSH1 0x0 DUP3 PUSH1 0x1F DUP4 ADD SLT PUSH2 0x1196 JUMPI PUSH2 0x1195 PUSH2 0x935 JUMP JUMPDEST JUMPDEST DUP2 CALLDATALOAD PUSH2 0x11A6 DUP5 DUP3 PUSH1 0x20 DUP7 ADD PUSH2 0x10FA JUMP JUMPDEST SWAP2 POP POP SWAP3 SWAP2 POP POP JUMP JUMPDEST PUSH1 0x0 DUP1 PUSH1 0x0 DUP1 PUSH1 0x80 DUP6 DUP8 SUB SLT ISZERO PUSH2 0x11C9 JUMPI PUSH2 0x11C8 PUSH2 0x84F JUMP JUMPDEST JUMPDEST PUSH1 0x0 DUP6 ADD CALLDATALOAD PUSH8 0xFFFFFFFFFFFFFFFF DUP2 GT ISZERO PUSH2 0x11E7 JUMPI PUSH2 0x11E6 PUSH2 0x854 JUMP JUMPDEST JUMPDEST PUSH2 0x11F3 DUP8 DUP3 DUP9 ADD PUSH2 0x1181 JUMP JUMPDEST SWAP5 POP POP PUSH1 0x20 DUP6 ADD CALLDATALOAD PUSH8 0xFFFFFFFFFFFFFFFF DUP2 GT ISZERO PUSH2 0x1214 JUMPI PUSH2 0x1213 PUSH2 0x854 JUMP JUMPDEST JUMPDEST PUSH2 0x1220 DUP8 DUP3 DUP9 ADD PUSH2 0xA4D JUMP JUMPDEST SWAP4 POP POP PUSH1 0x40 PUSH2 0x1231 DUP8 DUP3 DUP9 ADD PUSH2 0x87A JUMP JUMPDEST SWAP3 POP POP PUSH1 0x60 PUSH2 0x1242 DUP8 DUP3 DUP9 ADD PUSH2 0x87A JUMP JUMPDEST SWAP2 POP POP SWAP3 SWAP6 SWAP2 SWAP5 POP SWAP3 POP JUMP JUMPDEST PUSH1 0x0 DUP3 DUP3 MSTORE PUSH1 0x20 DUP3 ADD SWAP1 POP SWAP3 SWAP2 POP POP JUMP JUMPDEST PUSH32 0x496E646578206F7574206F6620626F756E647300000000000000000000000000 PUSH1 0x0 DUP3 ADD MSTORE POP JUMP JUMPDEST PUSH1 0x0 PUSH2 0x1295 PUSH1 0x13 DUP4 PUSH2 0x124E JUMP JUMPDEST SWAP2 POP PUSH2 0x12A0 DUP3 PUSH2 0x125F JUMP JUMPDEST PUSH1 0x20 DUP3 ADD SWAP1 POP SWAP2 SWAP1 POP JUMP JUMPDEST PUSH1 0x0 PUSH1 0x20 DUP3 ADD SWAP1 POP DUP2 DUP2 SUB PUSH1 0x0 DUP4 ADD MSTORE PUSH2 0x12C4 DUP2 PUSH2 0x1288 JUMP JUMPDEST SWAP1 POP SWAP2 SWAP1 POP JUMP JUMPDEST PUSH32 0x4E487B7100000000000000000000000000000000000000000000000000000000 PUSH1 0x0 MSTORE PUSH1 0x32 PUSH1 0x4 MSTORE PUSH1 0x24 PUSH1 0x0 REVERT JUMPDEST PUSH32 0x496E76616C696420616464726573730000000000000000000000000000000000 PUSH1 0x0 DUP3 ADD MSTORE POP JUMP JUMPDEST PUSH1 0x0 PUSH2 0x1330 PUSH1 0xF DUP4 PUSH2 0x124E JUMP JUMPDEST SWAP2 POP PUSH2 0x133B DUP3 PUSH2 0x12FA JUMP JUMPDEST PUSH1 0x20 DUP3 ADD SWAP1 POP SWAP2 SWAP1 POP JUMP JUMPDEST PUSH1 0x0 PUSH1 0x20 DUP3 ADD SWAP1 POP DUP2 DUP2 SUB PUSH1 0x0 DUP4 ADD MSTORE PUSH2 0x135F DUP2 PUSH2 0x1323 JUMP JUMPDEST SWAP1 POP SWAP2 SWAP1 POP JUMP JUMPDEST PUSH32 0x4174746573746F7220616C726561647920657869737473000000000000000000 PUSH1 0x0 DUP3 ADD MSTORE POP JUMP JUMPDEST PUSH1 0x0 PUSH2 0x139C PUSH1 0x17 DUP4 PUSH2 0x124E JUMP JUMPDEST SWAP2 POP PUSH2 0x13A7 DUP3 PUSH2 0x1366 JUMP JUMPDEST PUSH1 0x20 DUP3 ADD SWAP1 POP SWAP2 SWAP1 POP JUMP JUMPDEST PUSH1 0x0 PUSH1 0x20 DUP3 ADD SWAP1 POP DUP2 DUP2 SUB PUSH1 0x0 DUP4 ADD MSTORE PUSH2 0x13CB DUP2 PUSH2 0x138F JUMP JUMPDEST SWAP1 POP SWAP2 SWAP1 POP JUMP JUMPDEST PUSH1 0x0 DUP2 SWAP1 POP SWAP2 SWAP1 POP JUMP JUMPDEST PUSH1 0x0 DUP2 SWAP1 POP SWAP2 SWAP1 POP JUMP JUMPDEST PUSH1 0x0 PUSH2 0x1401 PUSH2 0x13FC PUSH2 0x13F7 DUP5 PUSH2 0x13D2 JUMP JUMPDEST PUSH2 0x13DC JUMP JUMPDEST PUSH2 0x859 JUMP JUMPDEST SWAP1 POP SWAP2 SWAP1 POP JUMP JUMPDEST PUSH2 0x1411 DUP2 PUSH2 0x13E6 JUMP JUMPDEST DUP3 MSTORE POP POP JUMP JUMPDEST PUSH1 0x0 PUSH1 0x20 DUP3 ADD SWAP1 POP PUSH2 0x142C PUSH1 0x0 DUP4 ADD DUP5 PUSH2 0x1408 JUMP JUMPDEST SWAP3 SWAP2 POP POP JUMP JUMPDEST PUSH32 0x4E487B7100000000000000000000000000000000000000000000000000000000 PUSH1 0x0 MSTORE PUSH1 0x11 PUSH1 0x4 MSTORE PUSH1 0x24 PUSH1 0x0 REVERT JUMPDEST PUSH1 0x0 PUSH2 0x146C DUP3 PUSH2 0x859 JUMP JUMPDEST SWAP2 POP PUSH2 0x1477 DUP4 PUSH2 0x859 JUMP JUMPDEST SWAP3 POP DUP3 DUP3 ADD SWAP1 POP DUP1 DUP3 GT ISZERO PUSH2 0x148F JUMPI PUSH2 0x148E PUSH2 0x1432 JUMP JUMPDEST JUMPDEST SWAP3 SWAP2 POP POP JUMP JUMPDEST PUSH32 0x4E487B7100000000000000000000000000000000000000000000000000000000 PUSH1 0x0 MSTORE PUSH1 0x12 PUSH1 0x4 MSTORE PUSH1 0x24 PUSH1 0x0 REVERT JUMPDEST PUSH1 0x0 PUSH2 0x14CF DUP3 PUSH2 0x859 JUMP JUMPDEST SWAP2 POP PUSH2 0x14DA DUP4 PUSH2 0x859 JUMP JUMPDEST SWAP3 POP DUP3 PUSH2 0x14EA JUMPI PUSH2 0x14E9 PUSH2 0x1495 JUMP JUMPDEST JUMPDEST DUP3 DUP3 DIV SWAP1 POP SWAP3 SWAP2 POP POP JUMP JUMPDEST PUSH1 0x0 PUSH2 0x1500 DUP3 PUSH2 0x859 JUMP JUMPDEST SWAP2 POP PUSH2 0x150B DUP4 PUSH2 0x859 JUMP JUMPDEST SWAP3 POP DUP3 DUP3 SUB SWAP1 POP DUP2 DUP2 GT ISZERO PUSH2 0x1523 JUMPI PUSH2 0x1522 PUSH2 0x1432 JUMP JUMPDEST JUMPDEST SWAP3 SWAP2 POP POP JUMP JUMPDEST PUSH32 0x7369676E6564576569676874206E6F742067726561746572207468616E207072 PUSH1 0x0 DUP3 ADD MSTORE PUSH32 0x6F76656E57656967687400000000000000000000000000000000000000000000 PUSH1 0x20 DUP3 ADD MSTORE POP JUMP JUMPDEST PUSH1 0x0 PUSH2 0x1585 PUSH1 0x2A DUP4 PUSH2 0x124E JUMP JUMPDEST SWAP2 POP PUSH2 0x1590 DUP3 PUSH2 0x1529 JUMP JUMPDEST PUSH1 0x40 DUP3 ADD SWAP1 POP SWAP2 SWAP1 POP JUMP JUMPDEST PUSH1 0x0 PUSH1 0x20 DUP3 ADD SWAP1 POP DUP2 DUP2 SUB PUSH1 0x0 DUP4 ADD MSTORE PUSH2 0x15B4 DUP2 PUSH2 0x1578 JUMP JUMPDEST SWAP1 POP SWAP2 SWAP1 POP JUMP JUMPDEST PUSH1 0x0 DUP2 MLOAD SWAP1 POP SWAP2 SWAP1 POP JUMP JUMPDEST PUSH1 0x0 JUMPDEST DUP4 DUP2 LT ISZERO PUSH2 0x15E4 JUMPI DUP1 DUP3 ADD MLOAD DUP2 DUP5 ADD MSTORE PUSH1 0x20 DUP2 ADD SWAP1 POP PUSH2 0x15C9 JUMP JUMPDEST PUSH1 0x0 DUP5 DUP5 ADD MSTORE POP POP POP POP JUMP JUMPDEST PUSH1 0x0 PUSH2 0x15FB DUP3 PUSH2 0x15BB JUMP JUMPDEST PUSH2 0x1605 DUP2 DUP6 PUSH2 0x124E JUMP JUMPDEST SWAP4 POP PUSH2 0x1615 DUP2 DUP6 PUSH1 0x20 DUP7 ADD PUSH2 0x15C6 JUMP JUMPDEST PUSH2 0x161E DUP2 PUSH2 0x93F JUMP JUMPDEST DUP5 ADD SWAP2 POP POP SWAP3 SWAP2 POP POP JUMP JUMPDEST PUSH1 0x0 PUSH1 0x20 DUP3 ADD SWAP1 POP DUP2 DUP2 SUB PUSH1 0x0 DUP4 ADD MSTORE PUSH2 0x1643 DUP2 DUP5 PUSH2 0x15F0 JUMP JUMPDEST SWAP1 POP SWAP3 SWAP2 POP POP JUMP JUMPDEST PUSH1 0x0 DUP2 SWAP1 POP SWAP2 SWAP1 POP JUMP JUMPDEST PUSH2 0x1666 PUSH2 0x1661 DUP3 PUSH2 0xAC4 JUMP JUMPDEST PUSH2 0x164B JUMP JUMPDEST DUP3 MSTORE POP POP JUMP JUMPDEST PUSH1 0x0 PUSH2 0x1678 DUP3 DUP5 PUSH2 0x1655 JUMP JUMPDEST PUSH1 0x20 DUP3 ADD SWAP2 POP DUP2 SWAP1 POP SWAP3 SWAP2 POP POP JUMP JUMPDEST PUSH32 0x5369676E61747572652070726F6F66206661696C656400000000000000000000 PUSH1 0x0 DUP3 ADD MSTORE POP JUMP JUMPDEST PUSH1 0x0 PUSH2 0x16BD PUSH1 0x16 DUP4 PUSH2 0x124E JUMP JUMPDEST SWAP2 POP PUSH2 0x16C8 DUP3 PUSH2 0x1687 JUMP JUMPDEST PUSH1 0x20 DUP3 ADD SWAP1 POP SWAP2 SWAP1 POP JUMP JUMPDEST PUSH1 0x0 PUSH1 0x20 DUP3 ADD SWAP1 POP DUP2 DUP2 SUB PUSH1 0x0 DUP4 ADD MSTORE PUSH2 0x16EC DUP2 PUSH2 0x16B0 JUMP JUMPDEST SWAP1 POP SWAP2 SWAP1 POP JUMP JUMPDEST PUSH1 0x0 PUSH2 0x16FE DUP3 PUSH2 0x859 JUMP JUMPDEST SWAP2 POP PUSH32 0xFFFFFFFFFFFFFFFFFFFFFFFFFFFFFFFFFFFFFFFFFFFFFFFFFFFFFFFFFFFFFFFF DUP3 SUB PUSH2 0x1730 JUMPI PUSH2 0x172F PUSH2 0x1432 JUMP JUMPDEST JUMPDEST PUSH1 0x1 DUP3 ADD SWAP1 POP SWAP2 SWAP1 POP JUMP INVALID LOG2 PUSH5 0x6970667358 0x22 SLT KECCAK256 EXTCODECOPY ISZERO RETURN EXTCODEHASH SELFBALANCE 0x2C 0xE4 MULMOD CALLDATALOAD 0xD3 SWAP8 DUP12 0xF6 SWAP5 COINBASE 0x24 0xBE 0xF 0xB5 BASEFEE 0xCB ADDRESS CALLER STOP 0xC1 PUSH29 0x4457A64F6F9264736F6C63430008140033000000000000000000000000 "},"methodIdentifiers":{"addAttestor(address)":"e0cae635","getAttestor(uint256)":"a6656cb1","globalAttestorsList(uint256)":"b2db0d7c","globalAttestorsMap(address)":"e2902a59","intToInd((string,uint256,uint256,string,string,uint8)[],uint256,uint256,uint256)":"e2d40c3c","stringToBytes32(string)":"cfb51928","verifyCertificate(((string,uint256,uint256,string,string,uint8),bytes32[],bytes,bytes32[],bytes32)[],string,uint256,uint256)":"ff4dd3f0"}}}}}