{"contracts/Verify.sol":{"AttestorRegistry":{"abi":[{"anonymous":false,"inputs":[{"indexed":true,"internalType":"address","name":"attestor","type":"address"},{"indexed":false,"internalType":"uint256","name":"weight","type":"uint256"}],"name":"AttestorAdded","type":"event"},{"inputs":[{"internalType":"address","name":"_attestor","type":"address"}],"name":"addAttestor","outputs":[],"stateMutability":"nonpayable","type":"function"},{"inputs":[{"internalType":"uint256","name":"index","type":"uint256"}],"name":"getAttestor","outputs":[{"internalType":"address","name":"","type":"address"},{"internalType":"uint256","name":"","type":"uint256"}],"stateMutability":"view","type":"function"},{"inputs":[{"internalType":"uint256","name":"","type":"uint256"}],"name":"globalAttestorsList","outputs":[{"internalType":"address","name":"pk","type":"address"},{"internalType":"uint256","name":"weight","type":"uint256"}],"stateMutability":"view","type":"function"},{"inputs":[{"internalType":"address","name":"","type":"address"}],"name":"globalAttestorsMap","outputs":[{"internalType":"bool","name":"","type":"bool"}],"stateMutability":"view","type":"function"},{"inputs":[{"components":[{"internalType":"bytes","name":"sig","type":"bytes"},{"internalType":"uint256","name":"L","type":"uint256"},{"internalType":"uint256","name":"R","type":"uint256"}],"internalType":"struct AttestorRegistry.Leaf[]","name":"arr","type":"tuple[]"},{"internalType":"uint256","name":"coin","type":"uint256"},{"internalType":"uint256","name":"start","type":"uint256"},{"internalType":"uint256","name":"end","type":"uint256"}],"name":"intToInd","outputs":[{"internalType":"uint256","name":"","type":"uint256"}],"stateMutability":"pure","type":"function"},{"inputs":[{"internalType":"bytes32","name":"root","type":"bytes32"}],"name":"storeRoot","outputs":[],"stateMutability":"nonpayable","type":"function"},{"inputs":[{"components":[{"components":[{"internalType":"bytes","name":"sig","type":"bytes"},{"internalType":"uint256","name":"L","type":"uint256"},{"internalType":"uint256","name":"R","type":"uint256"}],"internalType":"struct AttestorRegistry.Leaf","name":"sigTuple","type":"tuple"},{"internalType":"bytes32[]","name":"sigsProof","type":"bytes32[]"},{"internalType":"bytes","name":"attestorAddress","type":"bytes"},{"internalType":"bytes32[]","name":"attestorProof","type":"bytes32[]"}],"internalType":"struct AttestorRegistry.T_entry[]","name":"T","type":"tuple[]"},{"internalType":"bytes32","name":"sigsRoot","type":"bytes32"},{"internalType":"uint256","name":"signedWeight","type":"uint256"},{"internalType":"uint256","name":"provenWeight","type":"uint256"},{"internalType":"uint256","name":"k","type":"uint256"},{"internalType":"uint256","name":"q","type":"uint256"},{"components":[{"internalType":"bytes","name":"sig","type":"bytes"},{"internalType":"uint256","name":"L","type":"uint256"},{"internalType":"uint256","name":"R","type":"uint256"}],"internalType":"struct AttestorRegistry.Leaf[]","name":"leaves","type":"tuple[]"}],"name":"verifyCertificate","outputs":[{"internalType":"bool","name":"","type":"bool"}],"stateMutability":"view","type":"function"}],"evm":{"bytecode":{"linkReferences":{},"object":"608060405234801561001057600080fd5b506113b4806100206000396000f3fe608060405234801561001057600080fd5b506004361061007d5760003560e01c8063a6656cb11161005b578063a6656cb1146100fe578063b2db0d7c1461012f578063e0cae63514610160578063e2902a591461017c5761007d565b80632d12e847146100825780637e853439146100b2578063911b8b4e146100e2575b600080fd5b61009c60048036038101906100979190610cf9565b6101ac565b6040516100a99190610dee565b60405180910390f35b6100cc60048036038101906100c79190610e09565b6101e5565b6040516100d99190610e9b565b60405180910390f35b6100fc60048036038101906100f79190610eb6565b6102d8565b005b61011860048036038101906101139190610ee3565b6102e2565b604051610126929190610f51565b60405180910390f35b61014960048036038101906101449190610ee3565b610386565b604051610157929190610f51565b60405180910390f35b61017a60048036038101906101759190610fa6565b6103da565b005b61019660048036038101906101919190610fa6565b61062e565b6040516101a39190610dee565b60405180910390f35b60006101d6886000815181106101c5576101c4610fd3565b5b60200260200101516040015161064e565b60019050979650505050505050565b6000818311156101f857600090506102d0565b6000600283856102089190611031565b6102129190611094565b90508486828151811061022857610227610fd3565b5b6020026020010151602001511115801561026057508581815181106102505761024f610fd3565b5b6020026020010151604001518511155b1561026e57809150506102d0565b8486828151811061028257610281610fd3565b5b60200260200101516020015111156102b4576102ac8686866001856102a791906110c5565b6101e5565b9150506102d0565b6102cc86866001846102c69190611031565b866101e5565b9150505b949350505050565b8060028190555050565b600080600180549050831061032c576040517f08c379a000000000000000000000000000000000000000000000000000000000815260040161032390611156565b60405180910390fd5b60006001848154811061034257610341610fd3565b5b906000526020600020906002020190508060000160009054906101000a900473ffffffffffffffffffffffffffffffffffffffff1681600101549250925050915091565b6001818154811061039657600080fd5b90600052602060002090600202016000915090508060000160009054906101000a900473ffffffffffffffffffffffffffffffffffffffff16908060010154905082565b600073ffffffffffffffffffffffffffffffffffffffff168173ffffffffffffffffffffffffffffffffffffffff1603610449576040517f08c379a0000000000000000000000000000000000000000000000000000000008152600401610440906111c2565b60405180910390fd5b6000808273ffffffffffffffffffffffffffffffffffffffff1673ffffffffffffffffffffffffffffffffffffffff16815260200190815260200160002060009054906101000a900460ff16156104d5576040517f08c379a00000000000000000000000000000000000000000000000000000000081526004016104cc9061122e565b60405180910390fd5b60016000808373ffffffffffffffffffffffffffffffffffffffff1673ffffffffffffffffffffffffffffffffffffffff16815260200190815260200160002060006101000a81548160ff021916908315150217905550600060405180604001604052808373ffffffffffffffffffffffffffffffffffffffff16815260200160018152509050600181908060018154018082558091505060019003906000526020600020906002020160009091909190915060008201518160000160006101000a81548173ffffffffffffffffffffffffffffffffffffffff021916908373ffffffffffffffffffffffffffffffffffffffff1602179055506020820151816001015550508173ffffffffffffffffffffffffffffffffffffffff167f3048c9ea63a33da5ed9a73829970fa3c31e6a8b32bbc5747e24632f61c027e8e60016040516106229190611293565b60405180910390a25050565b60006020528060005260406000206000915054906101000a900460ff1681565b6106e481604051602401610662919061132d565b6040516020818303038152906040527f0be77f56000000000000000000000000000000000000000000000000000000007bffffffffffffffffffffffffffffffffffffffffffffffffffffffff19166020820180517bffffffffffffffffffffffffffffffffffffffffffffffffffffffff83818316178352505050506106e7565b50565b6106fe816106f6610701610722565b63ffffffff16565b50565b60006a636f6e736f6c652e6c6f679050600080835160208501845afa505050565b61072d819050919050565b61073561134f565b565b6000604051905090565b600080fd5b600080fd5b600080fd5b6000601f19601f8301169050919050565b7f4e487b7100000000000000000000000000000000000000000000000000000000600052604160045260246000fd5b61079982610750565b810181811067ffffffffffffffff821117156107b8576107b7610761565b5b80604052505050565b60006107cb610737565b90506107d78282610790565b919050565b600067ffffffffffffffff8211156107f7576107f6610761565b5b602082029050602081019050919050565b600080fd5b600080fd5b600080fd5b600080fd5b600067ffffffffffffffff82111561083757610836610761565b5b61084082610750565b9050602081019050919050565b82818337600083830152505050565b600061086f61086a8461081c565b6107c1565b90508281526020810184848401111561088b5761088a610817565b5b61089684828561084d565b509392505050565b600082601f8301126108b3576108b261074b565b5b81356108c384826020860161085c565b91505092915050565b6000819050919050565b6108df816108cc565b81146108ea57600080fd5b50565b6000813590506108fc816108d6565b92915050565b6000606082840312156109185761091761080d565b5b61092260606107c1565b9050600082013567ffffffffffffffff81111561094257610941610812565b5b61094e8482850161089e565b6000830152506020610962848285016108ed565b6020830152506040610976848285016108ed565b60408301525092915050565b600067ffffffffffffffff82111561099d5761099c610761565b5b602082029050602081019050919050565b6000819050919050565b6109c1816109ae565b81146109cc57600080fd5b50565b6000813590506109de816109b8565b92915050565b60006109f76109f284610982565b6107c1565b90508083825260208201905060208402830185811115610a1a57610a19610808565b5b835b81811015610a435780610a2f88826109cf565b845260208401935050602081019050610a1c565b5050509392505050565b600082601f830112610a6257610a6161074b565b5b8135610a728482602086016109e4565b91505092915050565b600060808284031215610a9157610a9061080d565b5b610a9b60806107c1565b9050600082013567ffffffffffffffff811115610abb57610aba610812565b5b610ac784828501610902565b600083015250602082013567ffffffffffffffff811115610aeb57610aea610812565b5b610af784828501610a4d565b602083015250604082013567ffffffffffffffff811115610b1b57610b1a610812565b5b610b278482850161089e565b604083015250606082013567ffffffffffffffff811115610b4b57610b4a610812565b5b610b5784828501610a4d565b60608301525092915050565b6000610b76610b71846107dc565b6107c1565b90508083825260208201905060208402830185811115610b9957610b98610808565b5b835b81811015610be057803567ffffffffffffffff811115610bbe57610bbd61074b565b5b808601610bcb8982610a7b565b85526020850194505050602081019050610b9b565b5050509392505050565b600082601f830112610bff57610bfe61074b565b5b8135610c0f848260208601610b63565b91505092915050565b600067ffffffffffffffff821115610c3357610c32610761565b5b602082029050602081019050919050565b6000610c57610c5284610c18565b6107c1565b90508083825260208201905060208402830185811115610c7a57610c79610808565b5b835b81811015610cc157803567ffffffffffffffff811115610c9f57610c9e61074b565b5b808601610cac8982610902565b85526020850194505050602081019050610c7c565b5050509392505050565b600082601f830112610ce057610cdf61074b565b5b8135610cf0848260208601610c44565b91505092915050565b600080600080600080600060e0888a031215610d1857610d17610741565b5b600088013567ffffffffffffffff811115610d3657610d35610746565b5b610d428a828b01610bea565b9750506020610d538a828b016109cf565b9650506040610d648a828b016108ed565b9550506060610d758a828b016108ed565b9450506080610d868a828b016108ed565b93505060a0610d978a828b016108ed565b92505060c088013567ffffffffffffffff811115610db857610db7610746565b5b610dc48a828b01610ccb565b91505092959891949750929550565b60008115159050919050565b610de881610dd3565b82525050565b6000602082019050610e036000830184610ddf565b92915050565b60008060008060808587031215610e2357610e22610741565b5b600085013567ffffffffffffffff811115610e4157610e40610746565b5b610e4d87828801610ccb565b9450506020610e5e878288016108ed565b9350506040610e6f878288016108ed565b9250506060610e80878288016108ed565b91505092959194509250565b610e95816108cc565b82525050565b6000602082019050610eb06000830184610e8c565b92915050565b600060208284031215610ecc57610ecb610741565b5b6000610eda848285016109cf565b91505092915050565b600060208284031215610ef957610ef8610741565b5b6000610f07848285016108ed565b91505092915050565b600073ffffffffffffffffffffffffffffffffffffffff82169050919050565b6000610f3b82610f10565b9050919050565b610f4b81610f30565b82525050565b6000604082019050610f666000830185610f42565b610f736020830184610e8c565b9392505050565b610f8381610f30565b8114610f8e57600080fd5b50565b600081359050610fa081610f7a565b92915050565b600060208284031215610fbc57610fbb610741565b5b6000610fca84828501610f91565b91505092915050565b7f4e487b7100000000000000000000000000000000000000000000000000000000600052603260045260246000fd5b7f4e487b7100000000000000000000000000000000000000000000000000000000600052601160045260246000fd5b600061103c826108cc565b9150611047836108cc565b925082820190508082111561105f5761105e611002565b5b92915050565b7f4e487b7100000000000000000000000000000000000000000000000000000000600052601260045260246000fd5b600061109f826108cc565b91506110aa836108cc565b9250826110ba576110b9611065565b5b828204905092915050565b60006110d0826108cc565b91506110db836108cc565b92508282039050818111156110f3576110f2611002565b5b92915050565b600082825260208201905092915050565b7f496e646578206f7574206f6620626f756e647300000000000000000000000000600082015250565b60006111406013836110f9565b915061114b8261110a565b602082019050919050565b6000602082019050818103600083015261116f81611133565b9050919050565b7f496e76616c696420616464726573730000000000000000000000000000000000600082015250565b60006111ac600f836110f9565b91506111b782611176565b602082019050919050565b600060208201905081810360008301526111db8161119f565b9050919050565b7f4174746573746f7220616c726561647920657869737473000000000000000000600082015250565b60006112186017836110f9565b9150611223826111e2565b602082019050919050565b600060208201905081810360008301526112478161120b565b9050919050565b6000819050919050565b6000819050919050565b600061127d6112786112738461124e565b611258565b6108cc565b9050919050565b61128d81611262565b82525050565b60006020820190506112a86000830184611284565b92915050565b600081519050919050565b600082825260208201905092915050565b60005b838110156112e85780820151818401526020810190506112cd565b60008484015250505050565b60006112ff826112ae565b61130981856112b9565b93506113198185602086016112ca565b61132281610750565b840191505092915050565b6000602082019050818103600083015261134781846112f4565b905092915050565b7f4e487b7100000000000000000000000000000000000000000000000000000000600052605160045260246000fdfea2646970667358221220d09bdcea8420d83b15905de7eccb1e261982d50b512ec2cc3aa9d69f482691ea64736f6c63430008140033","opcodes":"PUSH1 0x80 PUSH1 0x40 MSTORE CALLVALUE DUP1 ISZERO PUSH2 0x10 JUMPI PUSH1 0x0 DUP1 REVERT JUMPDEST POP PUSH2 0x13B4 DUP1 PUSH2 0x20 PUSH1 0x0 CODECOPY PUSH1 0x0 RETURN INVALID PUSH1 0x80 PUSH1 0x40 MSTORE CALLVALUE DUP1 ISZERO PUSH2 0x10 JUMPI PUSH1 0x0 DUP1 REVERT JUMPDEST POP PUSH1 0x4 CALLDATASIZE LT PUSH2 0x7D JUMPI PUSH1 0x0 CALLDATALOAD PUSH1 0xE0 SHR DUP1 PUSH4 0xA6656CB1 GT PUSH2 0x5B JUMPI DUP1 PUSH4 0xA6656CB1 EQ PUSH2 0xFE JUMPI DUP1 PUSH4 0xB2DB0D7C EQ PUSH2 0x12F JUMPI DUP1 PUSH4 0xE0CAE635 EQ PUSH2 0x160 JUMPI DUP1 PUSH4 0xE2902A59 EQ PUSH2 0x17C JUMPI PUSH2 0x7D JUMP JUMPDEST DUP1 PUSH4 0x2D12E847 EQ PUSH2 0x82 JUMPI DUP1 PUSH4 0x7E853439 EQ PUSH2 0xB2 JUMPI DUP1 PUSH4 0x911B8B4E EQ PUSH2 0xE2 JUMPI JUMPDEST PUSH1 0x0 DUP1 REVERT JUMPDEST PUSH2 0x9C PUSH1 0x4 DUP1 CALLDATASIZE SUB DUP2 ADD SWAP1 PUSH2 0x97 SWAP2 SWAP1 PUSH2 0xCF9 JUMP JUMPDEST PUSH2 0x1AC JUMP JUMPDEST PUSH1 0x40 MLOAD PUSH2 0xA9 SWAP2 SWAP1 PUSH2 0xDEE JUMP JUMPDEST PUSH1 0x40 MLOAD DUP1 SWAP2 SUB SWAP1 RETURN JUMPDEST PUSH2 0xCC PUSH1 0x4 DUP1 CALLDATASIZE SUB DUP2 ADD SWAP1 PUSH2 0xC7 SWAP2 SWAP1 PUSH2 0xE09 JUMP JUMPDEST PUSH2 0x1E5 JUMP JUMPDEST PUSH1 0x40 MLOAD PUSH2 0xD9 SWAP2 SWAP1 PUSH2 0xE9B JUMP JUMPDEST PUSH1 0x40 MLOAD DUP1 SWAP2 SUB SWAP1 RETURN JUMPDEST PUSH2 0xFC PUSH1 0x4 DUP1 CALLDATASIZE SUB DUP2 ADD SWAP1 PUSH2 0xF7 SWAP2 SWAP1 PUSH2 0xEB6 JUMP JUMPDEST PUSH2 0x2D8 JUMP JUMPDEST STOP JUMPDEST PUSH2 0x118 PUSH1 0x4 DUP1 CALLDATASIZE SUB DUP2 ADD SWAP1 PUSH2 0x113 SWAP2 SWAP1 PUSH2 0xEE3 JUMP JUMPDEST PUSH2 0x2E2 JUMP JUMPDEST PUSH1 0x40 MLOAD PUSH2 0x126 SWAP3 SWAP2 SWAP1 PUSH2 0xF51 JUMP JUMPDEST PUSH1 0x40 MLOAD DUP1 SWAP2 SUB SWAP1 RETURN JUMPDEST PUSH2 0x149 PUSH1 0x4 DUP1 CALLDATASIZE SUB DUP2 ADD SWAP1 PUSH2 0x144 SWAP2 SWAP1 PUSH2 0xEE3 JUMP JUMPDEST PUSH2 0x386 JUMP JUMPDEST PUSH1 0x40 MLOAD PUSH2 0x157 SWAP3 SWAP2 SWAP1 PUSH2 0xF51 JUMP JUMPDEST PUSH1 0x40 MLOAD DUP1 SWAP2 SUB SWAP1 RETURN JUMPDEST PUSH2 0x17A PUSH1 0x4 DUP1 CALLDATASIZE SUB DUP2 ADD SWAP1 PUSH2 0x175 SWAP2 SWAP1 PUSH2 0xFA6 JUMP JUMPDEST PUSH2 0x3DA JUMP JUMPDEST STOP JUMPDEST PUSH2 0x196 PUSH1 0x4 DUP1 CALLDATASIZE SUB DUP2 ADD SWAP1 PUSH2 0x191 SWAP2 SWAP1 PUSH2 0xFA6 JUMP JUMPDEST PUSH2 0x62E JUMP JUMPDEST PUSH1 0x40 MLOAD PUSH2 0x1A3 SWAP2 SWAP1 PUSH2 0xDEE JUMP JUMPDEST PUSH1 0x40 MLOAD DUP1 SWAP2 SUB SWAP1 RETURN JUMPDEST PUSH1 0x0 PUSH2 0x1D6 DUP9 PUSH1 0x0 DUP2 MLOAD DUP2 LT PUSH2 0x1C5 JUMPI PUSH2 0x1C4 PUSH2 0xFD3 JUMP JUMPDEST JUMPDEST PUSH1 0x20 MUL PUSH1 0x20 ADD ADD MLOAD PUSH1 0x40 ADD MLOAD PUSH2 0x64E JUMP JUMPDEST PUSH1 0x1 SWAP1 POP SWAP8 SWAP7 POP POP POP POP POP POP POP JUMP JUMPDEST PUSH1 0x0 DUP2 DUP4 GT ISZERO PUSH2 0x1F8 JUMPI PUSH1 0x0 SWAP1 POP PUSH2 0x2D0 JUMP JUMPDEST PUSH1 0x0 PUSH1 0x2 DUP4 DUP6 PUSH2 0x208 SWAP2 SWAP1 PUSH2 0x1031 JUMP JUMPDEST PUSH2 0x212 SWAP2 SWAP1 PUSH2 0x1094 JUMP JUMPDEST SWAP1 POP DUP5 DUP7 DUP3 DUP2 MLOAD DUP2 LT PUSH2 0x228 JUMPI PUSH2 0x227 PUSH2 0xFD3 JUMP JUMPDEST JUMPDEST PUSH1 0x20 MUL PUSH1 0x20 ADD ADD MLOAD PUSH1 0x20 ADD MLOAD GT ISZERO DUP1 ISZERO PUSH2 0x260 JUMPI POP DUP6 DUP2 DUP2 MLOAD DUP2 LT PUSH2 0x250 JUMPI PUSH2 0x24F PUSH2 0xFD3 JUMP JUMPDEST JUMPDEST PUSH1 0x20 MUL PUSH1 0x20 ADD ADD MLOAD PUSH1 0x40 ADD MLOAD DUP6 GT ISZERO JUMPDEST ISZERO PUSH2 0x26E JUMPI DUP1 SWAP2 POP POP PUSH2 0x2D0 JUMP JUMPDEST DUP5 DUP7 DUP3 DUP2 MLOAD DUP2 LT PUSH2 0x282 JUMPI PUSH2 0x281 PUSH2 0xFD3 JUMP JUMPDEST JUMPDEST PUSH1 0x20 MUL PUSH1 0x20 ADD ADD MLOAD PUSH1 0x20 ADD MLOAD GT ISZERO PUSH2 0x2B4 JUMPI PUSH2 0x2AC DUP7 DUP7 DUP7 PUSH1 0x1 DUP6 PUSH2 0x2A7 SWAP2 SWAP1 PUSH2 0x10C5 JUMP JUMPDEST PUSH2 0x1E5 JUMP JUMPDEST SWAP2 POP POP PUSH2 0x2D0 JUMP JUMPDEST PUSH2 0x2CC DUP7 DUP7 PUSH1 0x1 DUP5 PUSH2 0x2C6 SWAP2 SWAP1 PUSH2 0x1031 JUMP JUMPDEST DUP7 PUSH2 0x1E5 JUMP JUMPDEST SWAP2 POP POP JUMPDEST SWAP5 SWAP4 POP POP POP POP JUMP JUMPDEST DUP1 PUSH1 0x2 DUP2 SWAP1 SSTORE POP POP JUMP JUMPDEST PUSH1 0x0 DUP1 PUSH1 0x1 DUP1 SLOAD SWAP1 POP DUP4 LT PUSH2 0x32C JUMPI PUSH1 0x40 MLOAD PUSH32 0x8C379A000000000000000000000000000000000000000000000000000000000 DUP2 MSTORE PUSH1 0x4 ADD PUSH2 0x323 SWAP1 PUSH2 0x1156 JUMP JUMPDEST PUSH1 0x40 MLOAD DUP1 SWAP2 SUB SWAP1 REVERT JUMPDEST PUSH1 0x0 PUSH1 0x1 DUP5 DUP2 SLOAD DUP2 LT PUSH2 0x342 JUMPI PUSH2 0x341 PUSH2 0xFD3 JUMP JUMPDEST JUMPDEST SWAP1 PUSH1 0x0 MSTORE PUSH1 0x20 PUSH1 0x0 KECCAK256 SWAP1 PUSH1 0x2 MUL ADD SWAP1 POP DUP1 PUSH1 0x0 ADD PUSH1 0x0 SWAP1 SLOAD SWAP1 PUSH2 0x100 EXP SWAP1 DIV PUSH20 0xFFFFFFFFFFFFFFFFFFFFFFFFFFFFFFFFFFFFFFFF AND DUP2 PUSH1 0x1 ADD SLOAD SWAP3 POP SWAP3 POP POP SWAP2 POP SWAP2 JUMP JUMPDEST PUSH1 0x1 DUP2 DUP2 SLOAD DUP2 LT PUSH2 0x396 JUMPI PUSH1 0x0 DUP1 REVERT JUMPDEST SWAP1 PUSH1 0x0 MSTORE PUSH1 0x20 PUSH1 0x0 KECCAK256 SWAP1 PUSH1 0x2 MUL ADD PUSH1 0x0 SWAP2 POP SWAP1 POP DUP1 PUSH1 0x0 ADD PUSH1 0x0 SWAP1 SLOAD SWAP1 PUSH2 0x100 EXP SWAP1 DIV PUSH20 0xFFFFFFFFFFFFFFFFFFFFFFFFFFFFFFFFFFFFFFFF AND SWAP1 DUP1 PUSH1 0x1 ADD SLOAD SWAP1 POP DUP3 JUMP JUMPDEST PUSH1 0x0 PUSH20 0xFFFFFFFFFFFFFFFFFFFFFFFFFFFFFFFFFFFFFFFF AND DUP2 PUSH20 0xFFFFFFFFFFFFFFFFFFFFFFFFFFFFFFFFFFFFFFFF AND SUB PUSH2 0x449 JUMPI PUSH1 0x40 MLOAD PUSH32 0x8C379A000000000000000000000000000000000000000000000000000000000 DUP2 MSTORE PUSH1 0x4 ADD PUSH2 0x440 SWAP1 PUSH2 0x11C2 JUMP JUMPDEST PUSH1 0x40 MLOAD DUP1 SWAP2 SUB SWAP1 REVERT JUMPDEST PUSH1 0x0 DUP1 DUP3 PUSH20 0xFFFFFFFFFFFFFFFFFFFFFFFFFFFFFFFFFFFFFFFF AND PUSH20 0xFFFFFFFFFFFFFFFFFFFFFFFFFFFFFFFFFFFFFFFF AND DUP2 MSTORE PUSH1 0x20 ADD SWAP1 DUP2 MSTORE PUSH1 0x20 ADD PUSH1 0x0 KECCAK256 PUSH1 0x0 SWAP1 SLOAD SWAP1 PUSH2 0x100 EXP SWAP1 DIV PUSH1 0xFF AND ISZERO PUSH2 0x4D5 JUMPI PUSH1 0x40 MLOAD PUSH32 0x8C379A000000000000000000000000000000000000000000000000000000000 DUP2 MSTORE PUSH1 0x4 ADD PUSH2 0x4CC SWAP1 PUSH2 0x122E JUMP JUMPDEST PUSH1 0x40 MLOAD DUP1 SWAP2 SUB SWAP1 REVERT JUMPDEST PUSH1 0x1 PUSH1 0x0 DUP1 DUP4 PUSH20 0xFFFFFFFFFFFFFFFFFFFFFFFFFFFFFFFFFFFFFFFF AND PUSH20 0xFFFFFFFFFFFFFFFFFFFFFFFFFFFFFFFFFFFFFFFF AND DUP2 MSTORE PUSH1 0x20 ADD SWAP1 DUP2 MSTORE PUSH1 0x20 ADD PUSH1 0x0 KECCAK256 PUSH1 0x0 PUSH2 0x100 EXP DUP2 SLOAD DUP2 PUSH1 0xFF MUL NOT AND SWAP1 DUP4 ISZERO ISZERO MUL OR SWAP1 SSTORE POP PUSH1 0x0 PUSH1 0x40 MLOAD DUP1 PUSH1 0x40 ADD PUSH1 0x40 MSTORE DUP1 DUP4 PUSH20 0xFFFFFFFFFFFFFFFFFFFFFFFFFFFFFFFFFFFFFFFF AND DUP2 MSTORE PUSH1 0x20 ADD PUSH1 0x1 DUP2 MSTORE POP SWAP1 POP PUSH1 0x1 DUP2 SWAP1 DUP1 PUSH1 0x1 DUP2 SLOAD ADD DUP1 DUP3 SSTORE DUP1 SWAP2 POP POP PUSH1 0x1 SWAP1 SUB SWAP1 PUSH1 0x0 MSTORE PUSH1 0x20 PUSH1 0x0 KECCAK256 SWAP1 PUSH1 0x2 MUL ADD PUSH1 0x0 SWAP1 SWAP2 SWAP1 SWAP2 SWAP1 SWAP2 POP PUSH1 0x0 DUP3 ADD MLOAD DUP2 PUSH1 0x0 ADD PUSH1 0x0 PUSH2 0x100 EXP DUP2 SLOAD DUP2 PUSH20 0xFFFFFFFFFFFFFFFFFFFFFFFFFFFFFFFFFFFFFFFF MUL NOT AND SWAP1 DUP4 PUSH20 0xFFFFFFFFFFFFFFFFFFFFFFFFFFFFFFFFFFFFFFFF AND MUL OR SWAP1 SSTORE POP PUSH1 0x20 DUP3 ADD MLOAD DUP2 PUSH1 0x1 ADD SSTORE POP POP DUP2 PUSH20 0xFFFFFFFFFFFFFFFFFFFFFFFFFFFFFFFFFFFFFFFF AND PUSH32 0x3048C9EA63A33DA5ED9A73829970FA3C31E6A8B32BBC5747E24632F61C027E8E PUSH1 0x1 PUSH1 0x40 MLOAD PUSH2 0x622 SWAP2 SWAP1 PUSH2 0x1293 JUMP JUMPDEST PUSH1 0x40 MLOAD DUP1 SWAP2 SUB SWAP1 LOG2 POP POP JUMP JUMPDEST PUSH1 0x0 PUSH1 0x20 MSTORE DUP1 PUSH1 0x0 MSTORE PUSH1 0x40 PUSH1 0x0 KECCAK256 PUSH1 0x0 SWAP2 POP SLOAD SWAP1 PUSH2 0x100 EXP SWAP1 DIV PUSH1 0xFF AND DUP2 JUMP JUMPDEST PUSH2 0x6E4 DUP2 PUSH1 0x40 MLOAD PUSH1 0x24 ADD PUSH2 0x662 SWAP2 SWAP1 PUSH2 0x132D JUMP JUMPDEST PUSH1 0x40 MLOAD PUSH1 0x20 DUP2 DUP4 SUB SUB DUP2 MSTORE SWAP1 PUSH1 0x40 MSTORE PUSH32 0xBE77F5600000000000000000000000000000000000000000000000000000000 PUSH28 0xFFFFFFFFFFFFFFFFFFFFFFFFFFFFFFFFFFFFFFFFFFFFFFFFFFFFFFFF NOT AND PUSH1 0x20 DUP3 ADD DUP1 MLOAD PUSH28 0xFFFFFFFFFFFFFFFFFFFFFFFFFFFFFFFFFFFFFFFFFFFFFFFFFFFFFFFF DUP4 DUP2 DUP4 AND OR DUP4 MSTORE POP POP POP POP PUSH2 0x6E7 JUMP JUMPDEST POP JUMP JUMPDEST PUSH2 0x6FE DUP2 PUSH2 0x6F6 PUSH2 0x701 PUSH2 0x722 JUMP JUMPDEST PUSH4 0xFFFFFFFF AND JUMP JUMPDEST POP JUMP JUMPDEST PUSH1 0x0 PUSH11 0x636F6E736F6C652E6C6F67 SWAP1 POP PUSH1 0x0 DUP1 DUP4 MLOAD PUSH1 0x20 DUP6 ADD DUP5 GAS STATICCALL POP POP POP JUMP JUMPDEST PUSH2 0x72D DUP2 SWAP1 POP SWAP2 SWAP1 POP JUMP JUMPDEST PUSH2 0x735 PUSH2 0x134F JUMP JUMPDEST JUMP JUMPDEST PUSH1 0x0 PUSH1 0x40 MLOAD SWAP1 POP SWAP1 JUMP JUMPDEST PUSH1 0x0 DUP1 REVERT JUMPDEST PUSH1 0x0 DUP1 REVERT JUMPDEST PUSH1 0x0 DUP1 REVERT JUMPDEST PUSH1 0x0 PUSH1 0x1F NOT PUSH1 0x1F DUP4 ADD AND SWAP1 POP SWAP2 SWAP1 POP JUMP JUMPDEST PUSH32 0x4E487B7100000000000000000000000000000000000000000000000000000000 PUSH1 0x0 MSTORE PUSH1 0x41 PUSH1 0x4 MSTORE PUSH1 0x24 PUSH1 0x0 REVERT JUMPDEST PUSH2 0x799 DUP3 PUSH2 0x750 JUMP JUMPDEST DUP2 ADD DUP2 DUP2 LT PUSH8 0xFFFFFFFFFFFFFFFF DUP3 GT OR ISZERO PUSH2 0x7B8 JUMPI PUSH2 0x7B7 PUSH2 0x761 JUMP JUMPDEST JUMPDEST DUP1 PUSH1 0x40 MSTORE POP POP POP JUMP JUMPDEST PUSH1 0x0 PUSH2 0x7CB PUSH2 0x737 JUMP JUMPDEST SWAP1 POP PUSH2 0x7D7 DUP3 DUP3 PUSH2 0x790 JUMP JUMPDEST SWAP2 SWAP1 POP JUMP JUMPDEST PUSH1 0x0 PUSH8 0xFFFFFFFFFFFFFFFF DUP3 GT ISZERO PUSH2 0x7F7 JUMPI PUSH2 0x7F6 PUSH2 0x761 JUMP JUMPDEST JUMPDEST PUSH1 0x20 DUP3 MUL SWAP1 POP PUSH1 0x20 DUP2 ADD SWAP1 POP SWAP2 SWAP1 POP JUMP JUMPDEST PUSH1 0x0 DUP1 REVERT JUMPDEST PUSH1 0x0 DUP1 REVERT JUMPDEST PUSH1 0x0 DUP1 REVERT JUMPDEST PUSH1 0x0 DUP1 REVERT JUMPDEST PUSH1 0x0 PUSH8 0xFFFFFFFFFFFFFFFF DUP3 GT ISZERO PUSH2 0x837 JUMPI PUSH2 0x836 PUSH2 0x761 JUMP JUMPDEST JUMPDEST PUSH2 0x840 DUP3 PUSH2 0x750 JUMP JUMPDEST SWAP1 POP PUSH1 0x20 DUP2 ADD SWAP1 POP SWAP2 SWAP1 POP JUMP JUMPDEST DUP3 DUP2 DUP4 CALLDATACOPY PUSH1 0x0 DUP4 DUP4 ADD MSTORE POP POP POP JUMP JUMPDEST PUSH1 0x0 PUSH2 0x86F PUSH2 0x86A DUP5 PUSH2 0x81C JUMP JUMPDEST PUSH2 0x7C1 JUMP JUMPDEST SWAP1 POP DUP3 DUP2 MSTORE PUSH1 0x20 DUP2 ADD DUP5 DUP5 DUP5 ADD GT ISZERO PUSH2 0x88B JUMPI PUSH2 0x88A PUSH2 0x817 JUMP JUMPDEST JUMPDEST PUSH2 0x896 DUP5 DUP3 DUP6 PUSH2 0x84D JUMP JUMPDEST POP SWAP4 SWAP3 POP POP POP JUMP JUMPDEST PUSH1 0x0 DUP3 PUSH1 0x1F DUP4 ADD SLT PUSH2 0x8B3 JUMPI PUSH2 0x8B2 PUSH2 0x74B JUMP JUMPDEST JUMPDEST DUP2 CALLDATALOAD PUSH2 0x8C3 DUP5 DUP3 PUSH1 0x20 DUP7 ADD PUSH2 0x85C JUMP JUMPDEST SWAP2 POP POP SWAP3 SWAP2 POP POP JUMP JUMPDEST PUSH1 0x0 DUP2 SWAP1 POP SWAP2 SWAP1 POP JUMP JUMPDEST PUSH2 0x8DF DUP2 PUSH2 0x8CC JUMP JUMPDEST DUP2 EQ PUSH2 0x8EA JUMPI PUSH1 0x0 DUP1 REVERT JUMPDEST POP JUMP JUMPDEST PUSH1 0x0 DUP2 CALLDATALOAD SWAP1 POP PUSH2 0x8FC DUP2 PUSH2 0x8D6 JUMP JUMPDEST SWAP3 SWAP2 POP POP JUMP JUMPDEST PUSH1 0x0 PUSH1 0x60 DUP3 DUP5 SUB SLT ISZERO PUSH2 0x918 JUMPI PUSH2 0x917 PUSH2 0x80D JUMP JUMPDEST JUMPDEST PUSH2 0x922 PUSH1 0x60 PUSH2 0x7C1 JUMP JUMPDEST SWAP1 POP PUSH1 0x0 DUP3 ADD CALLDATALOAD PUSH8 0xFFFFFFFFFFFFFFFF DUP2 GT ISZERO PUSH2 0x942 JUMPI PUSH2 0x941 PUSH2 0x812 JUMP JUMPDEST JUMPDEST PUSH2 0x94E DUP5 DUP3 DUP6 ADD PUSH2 0x89E JUMP JUMPDEST PUSH1 0x0 DUP4 ADD MSTORE POP PUSH1 0x20 PUSH2 0x962 DUP5 DUP3 DUP6 ADD PUSH2 0x8ED JUMP JUMPDEST PUSH1 0x20 DUP4 ADD MSTORE POP PUSH1 0x40 PUSH2 0x976 DUP5 DUP3 DUP6 ADD PUSH2 0x8ED JUMP JUMPDEST PUSH1 0x40 DUP4 ADD MSTORE POP SWAP3 SWAP2 POP POP JUMP JUMPDEST PUSH1 0x0 PUSH8 0xFFFFFFFFFFFFFFFF DUP3 GT ISZERO PUSH2 0x99D JUMPI PUSH2 0x99C PUSH2 0x761 JUMP JUMPDEST JUMPDEST PUSH1 0x20 DUP3 MUL SWAP1 POP PUSH1 0x20 DUP2 ADD SWAP1 POP SWAP2 SWAP1 POP JUMP JUMPDEST PUSH1 0x0 DUP2 SWAP1 POP SWAP2 SWAP1 POP JUMP JUMPDEST PUSH2 0x9C1 DUP2 PUSH2 0x9AE JUMP JUMPDEST DUP2 EQ PUSH2 0x9CC JUMPI PUSH1 0x0 DUP1 REVERT JUMPDEST POP JUMP JUMPDEST PUSH1 0x0 DUP2 CALLDATALOAD SWAP1 POP PUSH2 0x9DE DUP2 PUSH2 0x9B8 JUMP JUMPDEST SWAP3 SWAP2 POP POP JUMP JUMPDEST PUSH1 0x0 PUSH2 0x9F7 PUSH2 0x9F2 DUP5 PUSH2 0x982 JUMP JUMPDEST PUSH2 0x7C1 JUMP JUMPDEST SWAP1 POP DUP1 DUP4 DUP3 MSTORE PUSH1 0x20 DUP3 ADD SWAP1 POP PUSH1 0x20 DUP5 MUL DUP4 ADD DUP6 DUP2 GT ISZERO PUSH2 0xA1A JUMPI PUSH2 0xA19 PUSH2 0x808 JUMP JUMPDEST JUMPDEST DUP4 JUMPDEST DUP2 DUP2 LT ISZERO PUSH2 0xA43 JUMPI DUP1 PUSH2 0xA2F DUP9 DUP3 PUSH2 0x9CF JUMP JUMPDEST DUP5 MSTORE PUSH1 0x20 DUP5 ADD SWAP4 POP POP PUSH1 0x20 DUP2 ADD SWAP1 POP PUSH2 0xA1C JUMP JUMPDEST POP POP POP SWAP4 SWAP3 POP POP POP JUMP JUMPDEST PUSH1 0x0 DUP3 PUSH1 0x1F DUP4 ADD SLT PUSH2 0xA62 JUMPI PUSH2 0xA61 PUSH2 0x74B JUMP JUMPDEST JUMPDEST DUP2 CALLDATALOAD PUSH2 0xA72 DUP5 DUP3 PUSH1 0x20 DUP7 ADD PUSH2 0x9E4 JUMP JUMPDEST SWAP2 POP POP SWAP3 SWAP2 POP POP JUMP JUMPDEST PUSH1 0x0 PUSH1 0x80 DUP3 DUP5 SUB SLT ISZERO PUSH2 0xA91 JUMPI PUSH2 0xA90 PUSH2 0x80D JUMP JUMPDEST JUMPDEST PUSH2 0xA9B PUSH1 0x80 PUSH2 0x7C1 JUMP JUMPDEST SWAP1 POP PUSH1 0x0 DUP3 ADD CALLDATALOAD PUSH8 0xFFFFFFFFFFFFFFFF DUP2 GT ISZERO PUSH2 0xABB JUMPI PUSH2 0xABA PUSH2 0x812 JUMP JUMPDEST JUMPDEST PUSH2 0xAC7 DUP5 DUP3 DUP6 ADD PUSH2 0x902 JUMP JUMPDEST PUSH1 0x0 DUP4 ADD MSTORE POP PUSH1 0x20 DUP3 ADD CALLDATALOAD PUSH8 0xFFFFFFFFFFFFFFFF DUP2 GT ISZERO PUSH2 0xAEB JUMPI PUSH2 0xAEA PUSH2 0x812 JUMP JUMPDEST JUMPDEST PUSH2 0xAF7 DUP5 DUP3 DUP6 ADD PUSH2 0xA4D JUMP JUMPDEST PUSH1 0x20 DUP4 ADD MSTORE POP PUSH1 0x40 DUP3 ADD CALLDATALOAD PUSH8 0xFFFFFFFFFFFFFFFF DUP2 GT ISZERO PUSH2 0xB1B JUMPI PUSH2 0xB1A PUSH2 0x812 JUMP JUMPDEST JUMPDEST PUSH2 0xB27 DUP5 DUP3 DUP6 ADD PUSH2 0x89E JUMP JUMPDEST PUSH1 0x40 DUP4 ADD MSTORE POP PUSH1 0x60 DUP3 ADD CALLDATALOAD PUSH8 0xFFFFFFFFFFFFFFFF DUP2 GT ISZERO PUSH2 0xB4B JUMPI PUSH2 0xB4A PUSH2 0x812 JUMP JUMPDEST JUMPDEST PUSH2 0xB57 DUP5 DUP3 DUP6 ADD PUSH2 0xA4D JUMP JUMPDEST PUSH1 0x60 DUP4 ADD MSTORE POP SWAP3 SWAP2 POP POP JUMP JUMPDEST PUSH1 0x0 PUSH2 0xB76 PUSH2 0xB71 DUP5 PUSH2 0x7DC JUMP JUMPDEST PUSH2 0x7C1 JUMP JUMPDEST SWAP1 POP DUP1 DUP4 DUP3 MSTORE PUSH1 0x20 DUP3 ADD SWAP1 POP PUSH1 0x20 DUP5 MUL DUP4 ADD DUP6 DUP2 GT ISZERO PUSH2 0xB99 JUMPI PUSH2 0xB98 PUSH2 0x808 JUMP JUMPDEST JUMPDEST DUP4 JUMPDEST DUP2 DUP2 LT ISZERO PUSH2 0xBE0 JUMPI DUP1 CALLDATALOAD PUSH8 0xFFFFFFFFFFFFFFFF DUP2 GT ISZERO PUSH2 0xBBE JUMPI PUSH2 0xBBD PUSH2 0x74B JUMP JUMPDEST JUMPDEST DUP1 DUP7 ADD PUSH2 0xBCB DUP10 DUP3 PUSH2 0xA7B JUMP JUMPDEST DUP6 MSTORE PUSH1 0x20 DUP6 ADD SWAP5 POP POP POP PUSH1 0x20 DUP2 ADD SWAP1 POP PUSH2 0xB9B JUMP JUMPDEST POP POP POP SWAP4 SWAP3 POP POP POP JUMP JUMPDEST PUSH1 0x0 DUP3 PUSH1 0x1F DUP4 ADD SLT PUSH2 0xBFF JUMPI PUSH2 0xBFE PUSH2 0x74B JUMP JUMPDEST JUMPDEST DUP2 CALLDATALOAD PUSH2 0xC0F DUP5 DUP3 PUSH1 0x20 DUP7 ADD PUSH2 0xB63 JUMP JUMPDEST SWAP2 POP POP SWAP3 SWAP2 POP POP JUMP JUMPDEST PUSH1 0x0 PUSH8 0xFFFFFFFFFFFFFFFF DUP3 GT ISZERO PUSH2 0xC33 JUMPI PUSH2 0xC32 PUSH2 0x761 JUMP JUMPDEST JUMPDEST PUSH1 0x20 DUP3 MUL SWAP1 POP PUSH1 0x20 DUP2 ADD SWAP1 POP SWAP2 SWAP1 POP JUMP JUMPDEST PUSH1 0x0 PUSH2 0xC57 PUSH2 0xC52 DUP5 PUSH2 0xC18 JUMP JUMPDEST PUSH2 0x7C1 JUMP JUMPDEST SWAP1 POP DUP1 DUP4 DUP3 MSTORE PUSH1 0x20 DUP3 ADD SWAP1 POP PUSH1 0x20 DUP5 MUL DUP4 ADD DUP6 DUP2 GT ISZERO PUSH2 0xC7A JUMPI PUSH2 0xC79 PUSH2 0x808 JUMP JUMPDEST JUMPDEST DUP4 JUMPDEST DUP2 DUP2 LT ISZERO PUSH2 0xCC1 JUMPI DUP1 CALLDATALOAD PUSH8 0xFFFFFFFFFFFFFFFF DUP2 GT ISZERO PUSH2 0xC9F JUMPI PUSH2 0xC9E PUSH2 0x74B JUMP JUMPDEST JUMPDEST DUP1 DUP7 ADD PUSH2 0xCAC DUP10 DUP3 PUSH2 0x902 JUMP JUMPDEST DUP6 MSTORE PUSH1 0x20 DUP6 ADD SWAP5 POP POP POP PUSH1 0x20 DUP2 ADD SWAP1 POP PUSH2 0xC7C JUMP JUMPDEST POP POP POP SWAP4 SWAP3 POP POP POP JUMP JUMPDEST PUSH1 0x0 DUP3 PUSH1 0x1F DUP4 ADD SLT PUSH2 0xCE0 JUMPI PUSH2 0xCDF PUSH2 0x74B JUMP JUMPDEST JUMPDEST DUP2 CALLDATALOAD PUSH2 0xCF0 DUP5 DUP3 PUSH1 0x20 DUP7 ADD PUSH2 0xC44 JUMP JUMPDEST SWAP2 POP POP SWAP3 SWAP2 POP POP JUMP JUMPDEST PUSH1 0x0 DUP1 PUSH1 0x0 DUP1 PUSH1 0x0 DUP1 PUSH1 0x0 PUSH1 0xE0 DUP9 DUP11 SUB SLT ISZERO PUSH2 0xD18 JUMPI PUSH2 0xD17 PUSH2 0x741 JUMP JUMPDEST JUMPDEST PUSH1 0x0 DUP9 ADD CALLDATALOAD PUSH8 0xFFFFFFFFFFFFFFFF DUP2 GT ISZERO PUSH2 0xD36 JUMPI PUSH2 0xD35 PUSH2 0x746 JUMP JUMPDEST JUMPDEST PUSH2 0xD42 DUP11 DUP3 DUP12 ADD PUSH2 0xBEA JUMP JUMPDEST SWAP8 POP POP PUSH1 0x20 PUSH2 0xD53 DUP11 DUP3 DUP12 ADD PUSH2 0x9CF JUMP JUMPDEST SWAP7 POP POP PUSH1 0x40 PUSH2 0xD64 DUP11 DUP3 DUP12 ADD PUSH2 0x8ED JUMP JUMPDEST SWAP6 POP POP PUSH1 0x60 PUSH2 0xD75 DUP11 DUP3 DUP12 ADD PUSH2 0x8ED JUMP JUMPDEST SWAP5 POP POP PUSH1 0x80 PUSH2 0xD86 DUP11 DUP3 DUP12 ADD PUSH2 0x8ED JUMP JUMPDEST SWAP4 POP POP PUSH1 0xA0 PUSH2 0xD97 DUP11 DUP3 DUP12 ADD PUSH2 0x8ED JUMP JUMPDEST SWAP3 POP POP PUSH1 0xC0 DUP9 ADD CALLDATALOAD PUSH8 0xFFFFFFFFFFFFFFFF DUP2 GT ISZERO PUSH2 0xDB8 JUMPI PUSH2 0xDB7 PUSH2 0x746 JUMP JUMPDEST JUMPDEST PUSH2 0xDC4 DUP11 DUP3 DUP12 ADD PUSH2 0xCCB JUMP JUMPDEST SWAP2 POP POP SWAP3 SWAP6 SWAP9 SWAP2 SWAP5 SWAP8 POP SWAP3 SWAP6 POP JUMP JUMPDEST PUSH1 0x0 DUP2 ISZERO ISZERO SWAP1 POP SWAP2 SWAP1 POP JUMP JUMPDEST PUSH2 0xDE8 DUP2 PUSH2 0xDD3 JUMP JUMPDEST DUP3 MSTORE POP POP JUMP JUMPDEST PUSH1 0x0 PUSH1 0x20 DUP3 ADD SWAP1 POP PUSH2 0xE03 PUSH1 0x0 DUP4 ADD DUP5 PUSH2 0xDDF JUMP JUMPDEST SWAP3 SWAP2 POP POP JUMP JUMPDEST PUSH1 0x0 DUP1 PUSH1 0x0 DUP1 PUSH1 0x80 DUP6 DUP8 SUB SLT ISZERO PUSH2 0xE23 JUMPI PUSH2 0xE22 PUSH2 0x741 JUMP JUMPDEST JUMPDEST PUSH1 0x0 DUP6 ADD CALLDATALOAD PUSH8 0xFFFFFFFFFFFFFFFF DUP2 GT ISZERO PUSH2 0xE41 JUMPI PUSH2 0xE40 PUSH2 0x746 JUMP JUMPDEST JUMPDEST PUSH2 0xE4D DUP8 DUP3 DUP9 ADD PUSH2 0xCCB JUMP JUMPDEST SWAP5 POP POP PUSH1 0x20 PUSH2 0xE5E DUP8 DUP3 DUP9 ADD PUSH2 0x8ED JUMP JUMPDEST SWAP4 POP POP PUSH1 0x40 PUSH2 0xE6F DUP8 DUP3 DUP9 ADD PUSH2 0x8ED JUMP JUMPDEST SWAP3 POP POP PUSH1 0x60 PUSH2 0xE80 DUP8 DUP3 DUP9 ADD PUSH2 0x8ED JUMP JUMPDEST SWAP2 POP POP SWAP3 SWAP6 SWAP2 SWAP5 POP SWAP3 POP JUMP JUMPDEST PUSH2 0xE95 DUP2 PUSH2 0x8CC JUMP JUMPDEST DUP3 MSTORE POP POP JUMP JUMPDEST PUSH1 0x0 PUSH1 0x20 DUP3 ADD SWAP1 POP PUSH2 0xEB0 PUSH1 0x0 DUP4 ADD DUP5 PUSH2 0xE8C JUMP JUMPDEST SWAP3 SWAP2 POP POP JUMP JUMPDEST PUSH1 0x0 PUSH1 0x20 DUP3 DUP5 SUB SLT ISZERO PUSH2 0xECC JUMPI PUSH2 0xECB PUSH2 0x741 JUMP JUMPDEST JUMPDEST PUSH1 0x0 PUSH2 0xEDA DUP5 DUP3 DUP6 ADD PUSH2 0x9CF JUMP JUMPDEST SWAP2 POP POP SWAP3 SWAP2 POP POP JUMP JUMPDEST PUSH1 0x0 PUSH1 0x20 DUP3 DUP5 SUB SLT ISZERO PUSH2 0xEF9 JUMPI PUSH2 0xEF8 PUSH2 0x741 JUMP JUMPDEST JUMPDEST PUSH1 0x0 PUSH2 0xF07 DUP5 DUP3 DUP6 ADD PUSH2 0x8ED JUMP JUMPDEST SWAP2 POP POP SWAP3 SWAP2 POP POP JUMP JUMPDEST PUSH1 0x0 PUSH20 0xFFFFFFFFFFFFFFFFFFFFFFFFFFFFFFFFFFFFFFFF DUP3 AND SWAP1 POP SWAP2 SWAP1 POP JUMP JUMPDEST PUSH1 0x0 PUSH2 0xF3B DUP3 PUSH2 0xF10 JUMP JUMPDEST SWAP1 POP SWAP2 SWAP1 POP JUMP JUMPDEST PUSH2 0xF4B DUP2 PUSH2 0xF30 JUMP JUMPDEST DUP3 MSTORE POP POP JUMP JUMPDEST PUSH1 0x0 PUSH1 0x40 DUP3 ADD SWAP1 POP PUSH2 0xF66 PUSH1 0x0 DUP4 ADD DUP6 PUSH2 0xF42 JUMP JUMPDEST PUSH2 0xF73 PUSH1 0x20 DUP4 ADD DUP5 PUSH2 0xE8C JUMP JUMPDEST SWAP4 SWAP3 POP POP POP JUMP JUMPDEST PUSH2 0xF83 DUP2 PUSH2 0xF30 JUMP JUMPDEST DUP2 EQ PUSH2 0xF8E JUMPI PUSH1 0x0 DUP1 REVERT JUMPDEST POP JUMP JUMPDEST PUSH1 0x0 DUP2 CALLDATALOAD SWAP1 POP PUSH2 0xFA0 DUP2 PUSH2 0xF7A JUMP JUMPDEST SWAP3 SWAP2 POP POP JUMP JUMPDEST PUSH1 0x0 PUSH1 0x20 DUP3 DUP5 SUB SLT ISZERO PUSH2 0xFBC JUMPI PUSH2 0xFBB PUSH2 0x741 JUMP JUMPDEST JUMPDEST PUSH1 0x0 PUSH2 0xFCA DUP5 DUP3 DUP6 ADD PUSH2 0xF91 JUMP JUMPDEST SWAP2 POP POP SWAP3 SWAP2 POP POP JUMP JUMPDEST PUSH32 0x4E487B7100000000000000000000000000000000000000000000000000000000 PUSH1 0x0 MSTORE PUSH1 0x32 PUSH1 0x4 MSTORE PUSH1 0x24 PUSH1 0x0 REVERT JUMPDEST PUSH32 0x4E487B7100000000000000000000000000000000000000000000000000000000 PUSH1 0x0 MSTORE PUSH1 0x11 PUSH1 0x4 MSTORE PUSH1 0x24 PUSH1 0x0 REVERT JUMPDEST PUSH1 0x0 PUSH2 0x103C DUP3 PUSH2 0x8CC JUMP JUMPDEST SWAP2 POP PUSH2 0x1047 DUP4 PUSH2 0x8CC JUMP JUMPDEST SWAP3 POP DUP3 DUP3 ADD SWAP1 POP DUP1 DUP3 GT ISZERO PUSH2 0x105F JUMPI PUSH2 0x105E PUSH2 0x1002 JUMP JUMPDEST JUMPDEST SWAP3 SWAP2 POP POP JUMP JUMPDEST PUSH32 0x4E487B7100000000000000000000000000000000000000000000000000000000 PUSH1 0x0 MSTORE PUSH1 0x12 PUSH1 0x4 MSTORE PUSH1 0x24 PUSH1 0x0 REVERT JUMPDEST PUSH1 0x0 PUSH2 0x109F DUP3 PUSH2 0x8CC JUMP JUMPDEST SWAP2 POP PUSH2 0x10AA DUP4 PUSH2 0x8CC JUMP JUMPDEST SWAP3 POP DUP3 PUSH2 0x10BA JUMPI PUSH2 0x10B9 PUSH2 0x1065 JUMP JUMPDEST JUMPDEST DUP3 DUP3 DIV SWAP1 POP SWAP3 SWAP2 POP POP JUMP JUMPDEST PUSH1 0x0 PUSH2 0x10D0 DUP3 PUSH2 0x8CC JUMP JUMPDEST SWAP2 POP PUSH2 0x10DB DUP4 PUSH2 0x8CC JUMP JUMPDEST SWAP3 POP DUP3 DUP3 SUB SWAP1 POP DUP2 DUP2 GT ISZERO PUSH2 0x10F3 JUMPI PUSH2 0x10F2 PUSH2 0x1002 JUMP JUMPDEST JUMPDEST SWAP3 SWAP2 POP POP JUMP JUMPDEST PUSH1 0x0 DUP3 DUP3 MSTORE PUSH1 0x20 DUP3 ADD SWAP1 POP SWAP3 SWAP2 POP POP JUMP JUMPDEST PUSH32 0x496E646578206F7574206F6620626F756E647300000000000000000000000000 PUSH1 0x0 DUP3 ADD MSTORE POP JUMP JUMPDEST PUSH1 0x0 PUSH2 0x1140 PUSH1 0x13 DUP4 PUSH2 0x10F9 JUMP JUMPDEST SWAP2 POP PUSH2 0x114B DUP3 PUSH2 0x110A JUMP JUMPDEST PUSH1 0x20 DUP3 ADD SWAP1 POP SWAP2 SWAP1 POP JUMP JUMPDEST PUSH1 0x0 PUSH1 0x20 DUP3 ADD SWAP1 POP DUP2 DUP2 SUB PUSH1 0x0 DUP4 ADD MSTORE PUSH2 0x116F DUP2 PUSH2 0x1133 JUMP JUMPDEST SWAP1 POP SWAP2 SWAP1 POP JUMP JUMPDEST PUSH32 0x496E76616C696420616464726573730000000000000000000000000000000000 PUSH1 0x0 DUP3 ADD MSTORE POP JUMP JUMPDEST PUSH1 0x0 PUSH2 0x11AC PUSH1 0xF DUP4 PUSH2 0x10F9 JUMP JUMPDEST SWAP2 POP PUSH2 0x11B7 DUP3 PUSH2 0x1176 JUMP JUMPDEST PUSH1 0x20 DUP3 ADD SWAP1 POP SWAP2 SWAP1 POP JUMP JUMPDEST PUSH1 0x0 PUSH1 0x20 DUP3 ADD SWAP1 POP DUP2 DUP2 SUB PUSH1 0x0 DUP4 ADD MSTORE PUSH2 0x11DB DUP2 PUSH2 0x119F JUMP JUMPDEST SWAP1 POP SWAP2 SWAP1 POP JUMP JUMPDEST PUSH32 0x4174746573746F7220616C726561647920657869737473000000000000000000 PUSH1 0x0 DUP3 ADD MSTORE POP JUMP JUMPDEST PUSH1 0x0 PUSH2 0x1218 PUSH1 0x17 DUP4 PUSH2 0x10F9 JUMP JUMPDEST SWAP2 POP PUSH2 0x1223 DUP3 PUSH2 0x11E2 JUMP JUMPDEST PUSH1 0x20 DUP3 ADD SWAP1 POP SWAP2 SWAP1 POP JUMP JUMPDEST PUSH1 0x0 PUSH1 0x20 DUP3 ADD SWAP1 POP DUP2 DUP2 SUB PUSH1 0x0 DUP4 ADD MSTORE PUSH2 0x1247 DUP2 PUSH2 0x120B JUMP JUMPDEST SWAP1 POP SWAP2 SWAP1 POP JUMP JUMPDEST PUSH1 0x0 DUP2 SWAP1 POP SWAP2 SWAP1 POP JUMP JUMPDEST PUSH1 0x0 DUP2 SWAP1 POP SWAP2 SWAP1 POP JUMP JUMPDEST PUSH1 0x0 PUSH2 0x127D PUSH2 0x1278 PUSH2 0x1273 DUP5 PUSH2 0x124E JUMP JUMPDEST PUSH2 0x1258 JUMP JUMPDEST PUSH2 0x8CC JUMP JUMPDEST SWAP1 POP SWAP2 SWAP1 POP JUMP JUMPDEST PUSH2 0x128D DUP2 PUSH2 0x1262 JUMP JUMPDEST DUP3 MSTORE POP POP JUMP JUMPDEST PUSH1 0x0 PUSH1 0x20 DUP3 ADD SWAP1 POP PUSH2 0x12A8 PUSH1 0x0 DUP4 ADD DUP5 PUSH2 0x1284 JUMP JUMPDEST SWAP3 SWAP2 POP POP JUMP JUMPDEST PUSH1 0x0 DUP2 MLOAD SWAP1 POP SWAP2 SWAP1 POP JUMP JUMPDEST PUSH1 0x0 DUP3 DUP3 MSTORE PUSH1 0x20 DUP3 ADD SWAP1 POP SWAP3 SWAP2 POP POP JUMP JUMPDEST PUSH1 0x0 JUMPDEST DUP4 DUP2 LT ISZERO PUSH2 0x12E8 JUMPI DUP1 DUP3 ADD MLOAD DUP2 DUP5 ADD MSTORE PUSH1 0x20 DUP2 ADD SWAP1 POP PUSH2 0x12CD JUMP JUMPDEST PUSH1 0x0 DUP5 DUP5 ADD MSTORE POP POP POP POP JUMP JUMPDEST PUSH1 0x0 PUSH2 0x12FF DUP3 PUSH2 0x12AE JUMP JUMPDEST PUSH2 0x1309 DUP2 DUP6 PUSH2 0x12B9 JUMP JUMPDEST SWAP4 POP PUSH2 0x1319 DUP2 DUP6 PUSH1 0x20 DUP7 ADD PUSH2 0x12CA JUMP JUMPDEST PUSH2 0x1322 DUP2 PUSH2 0x750 JUMP JUMPDEST DUP5 ADD SWAP2 POP POP SWAP3 SWAP2 POP POP JUMP JUMPDEST PUSH1 0x0 PUSH1 0x20 DUP3 ADD SWAP1 POP DUP2 DUP2 SUB PUSH1 0x0 DUP4 ADD MSTORE PUSH2 0x1347 DUP2 DUP5 PUSH2 0x12F4 JUMP JUMPDEST SWAP1 POP SWAP3 SWAP2 POP POP JUMP JUMPDEST PUSH32 0x4E487B7100000000000000000000000000000000000000000000000000000000 PUSH1 0x0 MSTORE PUSH1 0x51 PUSH1 0x4 MSTORE PUSH1 0x24 PUSH1 0x0 REVERT INVALID LOG2 PUSH5 0x6970667358 0x22 SLT KECCAK256 0xD0 SWAP12 0xDC 0xEA DUP5 KECCAK256 0xD8 EXTCODESIZE ISZERO SWAP1 0x5D 0xE7 0xEC 0xCB 0x1E 0x26 NOT DUP3 0xD5 SIGNEXTEND MLOAD 0x2E 0xC2 0xCC GASPRICE 0xA9 0xD6 SWAP16 BASEFEE 0x26 SWAP2 0xEA PUSH5 0x736F6C6343 STOP ADDMOD EQ STOP CALLER "},"methodIdentifiers":{"addAttestor(address)":"e0cae635","getAttestor(uint256)":"a6656cb1","globalAttestorsList(uint256)":"b2db0d7c","globalAttestorsMap(address)":"e2902a59","intToInd((bytes,uint256,uint256)[],uint256,uint256,uint256)":"7e853439","storeRoot(bytes32)":"911b8b4e","verifyCertificate(((bytes,uint256,uint256),bytes32[],bytes,bytes32[])[],bytes32,uint256,uint256,uint256,uint256,(bytes,uint256,uint256)[])":"2d12e847"}}}}}