{
  "_format": "hh-sol-artifact-1",
  "contractName": "AttestorRegistry",
  "sourceName": "contracts/Verify.sol",
  "abi": [
    {
      "anonymous": false,
      "inputs": [
        {
          "indexed": true,
          "internalType": "address",
          "name": "attestor",
          "type": "address"
        },
        {
          "indexed": false,
          "internalType": "uint256",
          "name": "weight",
          "type": "uint256"
        }
      ],
      "name": "AttestorAdded",
      "type": "event"
    },
    {
      "inputs": [
        {
          "internalType": "address",
          "name": "_attestor",
          "type": "address"
        }
      ],
      "name": "addAttestor",
      "outputs": [],
      "stateMutability": "nonpayable",
      "type": "function"
    },
    {
      "inputs": [
        {
          "internalType": "uint256",
          "name": "index",
          "type": "uint256"
        }
      ],
      "name": "getAttestor",
      "outputs": [
        {
          "internalType": "address",
          "name": "",
          "type": "address"
        },
        {
          "internalType": "uint256",
          "name": "",
          "type": "uint256"
        }
      ],
      "stateMutability": "view",
      "type": "function"
    },
    {
      "inputs": [
        {
          "internalType": "uint256",
          "name": "",
          "type": "uint256"
        }
      ],
      "name": "globalAttestorsList",
      "outputs": [
        {
          "internalType": "address",
          "name": "pk",
          "type": "address"
        },
        {
          "internalType": "uint256",
          "name": "weight",
          "type": "uint256"
        }
      ],
      "stateMutability": "view",
      "type": "function"
    },
    {
      "inputs": [
        {
          "internalType": "address",
          "name": "",
          "type": "address"
        }
      ],
      "name": "globalAttestorsMap",
      "outputs": [
        {
          "internalType": "bool",
          "name": "",
          "type": "bool"
        }
      ],
      "stateMutability": "view",
      "type": "function"
    },
    {
      "inputs": [
        {
          "components": [
            {
              "internalType": "string",
              "name": "signature",
              "type": "string"
            },
            {
              "internalType": "uint256",
              "name": "L",
              "type": "uint256"
            },
            {
              "internalType": "uint256",
              "name": "R",
              "type": "uint256"
            },
            {
              "internalType": "string",
              "name": "_r",
              "type": "string"
            },
            {
              "internalType": "string",
              "name": "_s",
              "type": "string"
            },
            {
              "internalType": "uint8",
              "name": "_v",
              "type": "uint8"
            }
          ],
          "internalType": "struct AttestorRegistry.Leaf[]",
          "name": "arr",
          "type": "tuple[]"
        },
        {
          "internalType": "uint256",
          "name": "coin",
          "type": "uint256"
        },
        {
          "internalType": "uint256",
          "name": "start",
          "type": "uint256"
        },
        {
          "internalType": "uint256",
          "name": "end",
          "type": "uint256"
        }
      ],
      "name": "intToInd",
      "outputs": [
        {
          "internalType": "uint256",
          "name": "",
          "type": "uint256"
        }
      ],
      "stateMutability": "pure",
      "type": "function"
    },
    {
      "inputs": [
        {
          "internalType": "string",
          "name": "source",
          "type": "string"
        }
      ],
      "name": "stringToBytes32",
      "outputs": [
        {
          "internalType": "bytes32",
          "name": "result",
          "type": "bytes32"
        }
      ],
      "stateMutability": "pure",
      "type": "function"
    },
    {
      "inputs": [
        {
          "components": [
            {
              "components": [
                {
                  "internalType": "string",
                  "name": "signature",
                  "type": "string"
                },
                {
                  "internalType": "uint256",
                  "name": "L",
                  "type": "uint256"
                },
                {
                  "internalType": "uint256",
                  "name": "R",
                  "type": "uint256"
                },
                {
                  "internalType": "string",
                  "name": "_r",
                  "type": "string"
                },
                {
                  "internalType": "string",
                  "name": "_s",
                  "type": "string"
                },
                {
                  "internalType": "uint8",
                  "name": "_v",
                  "type": "uint8"
                }
              ],
              "internalType": "struct AttestorRegistry.Leaf",
              "name": "sigTuple",
              "type": "tuple"
            },
            {
              "internalType": "bytes32[]",
              "name": "sigsProof",
              "type": "bytes32[]"
            },
            {
              "internalType": "bytes",
              "name": "attestorAddress",
              "type": "bytes"
            },
            {
              "internalType": "bytes32[]",
              "name": "attestorProof",
              "type": "bytes32[]"
            },
            {
              "internalType": "bytes32",
              "name": "msgHash",
              "type": "bytes32"
            }
          ],
          "internalType": "struct AttestorRegistry.T_entry[]",
          "name": "T",
          "type": "tuple[]"
        },
        {
          "internalType": "string",
          "name": "sigsRoot",
          "type": "string"
        },
        {
          "internalType": "uint256",
          "name": "signedWeight",
          "type": "uint256"
        },
        {
          "internalType": "uint256",
          "name": "provenWeight",
          "type": "uint256"
        }
      ],
      "name": "verifyCertificate",
      "outputs": [
        {
          "internalType": "bool",
          "name": "",
          "type": "bool"
        }
      ],
      "stateMutability": "view",
      "type": "function"
    }
  ],
  "bytecode": "0x608060405234801561001057600080fd5b50611771806100206000396000f3fe608060405234801561001057600080fd5b506004361061007d5760003560e01c8063e0cae6351161005b578063e0cae63514610114578063e2902a5914610130578063e2d40c3c14610160578063ff4dd3f0146101905761007d565b8063a6656cb114610082578063b2db0d7c146100b3578063cfb51928146100e4575b600080fd5b61009c6004803603810190610097919061088f565b6101c0565b6040516100aa92919061090c565b60405180910390f35b6100cd60048036038101906100c8919061088f565b610264565b6040516100db92919061090c565b60405180910390f35b6100fe60048036038101906100f99190610a7b565b6102b8565b60405161010b9190610add565b60405180910390f35b61012e60048036038101906101299190610b24565b6102e1565b005b61014a60048036038101906101459190610b24565b610535565b6040516101579190610b6c565b60405180910390f35b61017a60048036038101906101759190610da4565b610555565b6040516101879190610e27565b60405180910390f35b6101aa60048036038101906101a591906111af565b610648565b6040516101b79190610b6c565b60405180910390f35b600080600180549050831061020a576040517f08c379a0000000000000000000000000000000000000000000000000000000008152600401610201906112ab565b60405180910390fd5b6000600184815481106102205761021f6112cb565b5b906000526020600020906002020190508060000160009054906101000a900473ffffffffffffffffffffffffffffffffffffffff1681600101549250925050915091565b6001818154811061027457600080fd5b90600052602060002090600202016000915090508060000160009054906101000a900473ffffffffffffffffffffffffffffffffffffffff16908060010154905082565b60008082905060008151036102d3576000801b9150506102dc565b60208301519150505b919050565b600073ffffffffffffffffffffffffffffffffffffffff168173ffffffffffffffffffffffffffffffffffffffff1603610350576040517f08c379a000000000000000000000000000000000000000000000000000000000815260040161034790611346565b60405180910390fd5b6000808273ffffffffffffffffffffffffffffffffffffffff1673ffffffffffffffffffffffffffffffffffffffff16815260200190815260200160002060009054906101000a900460ff16156103dc576040517f08c379a00000000000000000000000000000000000000000000000000000000081526004016103d3906113b2565b60405180910390fd5b60016000808373ffffffffffffffffffffffffffffffffffffffff1673ffffffffffffffffffffffffffffffffffffffff16815260200190815260200160002060006101000a81548160ff021916908315150217905550600060405180604001604052808373ffffffffffffffffffffffffffffffffffffffff16815260200160648152509050600181908060018154018082558091505060019003906000526020600020906002020160009091909190915060008201518160000160006101000a81548173ffffffffffffffffffffffffffffffffffffffff021916908373ffffffffffffffffffffffffffffffffffffffff1602179055506020820151816001015550508173ffffffffffffffffffffffffffffffffffffffff167f3048c9ea63a33da5ed9a73829970fa3c31e6a8b32bbc5747e24632f61c027e8e60016040516105299190611417565b60405180910390a25050565b60006020528060005260406000206000915054906101000a900460ff1681565b6000818311156105685760009050610640565b6000600283856105789190611461565b61058291906114c4565b905084868281518110610598576105976112cb565b5b602002602001015160200151111580156105d057508581815181106105c0576105bf6112cb565b5b6020026020010151604001518511155b156105de5780915050610640565b848682815181106105f2576105f16112cb565b5b60200260200101516020015111156106245761061c86868660018561061791906114f5565b610555565b915050610640565b61063c86866001846106369190611461565b86610555565b9150505b949350505050565b600081831161068c576040517f08c379a00000000000000000000000000000000000000000000000000000000081526004016106839061159b565b60405180910390fd5b60005b8551811015610789576107378682815181106106ae576106ad6112cb565b5b6020026020010151602001516106c3876102b8565b8884815181106106d6576106d56112cb565b5b602002602001015160000151600001516040516020016106f69190611629565b6040516020818303038152906040528051906020012060405160200161071c919061166c565b60405160208183030381529060405280519060200120610796565b610776576040517f08c379a000000000000000000000000000000000000000000000000000000000815260040161076d906116d3565b60405180910390fd5b8080610781906116f3565b91505061068f565b5060019050949350505050565b6000826107a385846107ad565b1490509392505050565b60008082905060005b84518110156107f8576107e3828683815181106107d6576107d56112cb565b5b6020026020010151610803565b915080806107f0906116f3565b9150506107b6565b508091505092915050565b600081831061081b57610816828461082e565b610826565b610825838361082e565b5b905092915050565b600082600052816020526040600020905092915050565b6000604051905090565b600080fd5b600080fd5b6000819050919050565b61086c81610859565b811461087757600080fd5b50565b60008135905061088981610863565b92915050565b6000602082840312156108a5576108a461084f565b5b60006108b38482850161087a565b91505092915050565b600073ffffffffffffffffffffffffffffffffffffffff82169050919050565b60006108e7826108bc565b9050919050565b6108f7816108dc565b82525050565b61090681610859565b82525050565b600060408201905061092160008301856108ee565b61092e60208301846108fd565b9392505050565b600080fd5b600080fd5b6000601f19601f8301169050919050565b7f4e487b7100000000000000000000000000000000000000000000000000000000600052604160045260246000fd5b6109888261093f565b810181811067ffffffffffffffff821117156109a7576109a6610950565b5b80604052505050565b60006109ba610845565b90506109c6828261097f565b919050565b600067ffffffffffffffff8211156109e6576109e5610950565b5b6109ef8261093f565b9050602081019050919050565b82818337600083830152505050565b6000610a1e610a19846109cb565b6109b0565b905082815260208101848484011115610a3a57610a3961093a565b5b610a458482856109fc565b509392505050565b600082601f830112610a6257610a61610935565b5b8135610a72848260208601610a0b565b91505092915050565b600060208284031215610a9157610a9061084f565b5b600082013567ffffffffffffffff811115610aaf57610aae610854565b5b610abb84828501610a4d565b91505092915050565b6000819050919050565b610ad781610ac4565b82525050565b6000602082019050610af26000830184610ace565b92915050565b610b01816108dc565b8114610b0c57600080fd5b50565b600081359050610b1e81610af8565b92915050565b600060208284031215610b3a57610b3961084f565b5b6000610b4884828501610b0f565b91505092915050565b60008115159050919050565b610b6681610b51565b82525050565b6000602082019050610b816000830184610b5d565b92915050565b600067ffffffffffffffff821115610ba257610ba1610950565b5b602082029050602081019050919050565b600080fd5b600080fd5b600080fd5b600060ff82169050919050565b610bd881610bc2565b8114610be357600080fd5b50565b600081359050610bf581610bcf565b92915050565b600060c08284031215610c1157610c10610bb8565b5b610c1b60c06109b0565b9050600082013567ffffffffffffffff811115610c3b57610c3a610bbd565b5b610c4784828501610a4d565b6000830152506020610c5b8482850161087a565b6020830152506040610c6f8482850161087a565b604083015250606082013567ffffffffffffffff811115610c9357610c92610bbd565b5b610c9f84828501610a4d565b606083015250608082013567ffffffffffffffff811115610cc357610cc2610bbd565b5b610ccf84828501610a4d565b60808301525060a0610ce384828501610be6565b60a08301525092915050565b6000610d02610cfd84610b87565b6109b0565b90508083825260208201905060208402830185811115610d2557610d24610bb3565b5b835b81811015610d6c57803567ffffffffffffffff811115610d4a57610d49610935565b5b808601610d578982610bfb565b85526020850194505050602081019050610d27565b5050509392505050565b600082601f830112610d8b57610d8a610935565b5b8135610d9b848260208601610cef565b91505092915050565b60008060008060808587031215610dbe57610dbd61084f565b5b600085013567ffffffffffffffff811115610ddc57610ddb610854565b5b610de887828801610d76565b9450506020610df98782880161087a565b9350506040610e0a8782880161087a565b9250506060610e1b8782880161087a565b91505092959194509250565b6000602082019050610e3c60008301846108fd565b92915050565b600067ffffffffffffffff821115610e5d57610e5c610950565b5b602082029050602081019050919050565b600067ffffffffffffffff821115610e8957610e88610950565b5b602082029050602081019050919050565b610ea381610ac4565b8114610eae57600080fd5b50565b600081359050610ec081610e9a565b92915050565b6000610ed9610ed484610e6e565b6109b0565b90508083825260208201905060208402830185811115610efc57610efb610bb3565b5b835b81811015610f255780610f118882610eb1565b845260208401935050602081019050610efe565b5050509392505050565b600082601f830112610f4457610f43610935565b5b8135610f54848260208601610ec6565b91505092915050565b600067ffffffffffffffff821115610f7857610f77610950565b5b610f818261093f565b9050602081019050919050565b6000610fa1610f9c84610f5d565b6109b0565b905082815260208101848484011115610fbd57610fbc61093a565b5b610fc88482856109fc565b509392505050565b600082601f830112610fe557610fe4610935565b5b8135610ff5848260208601610f8e565b91505092915050565b600060a0828403121561101457611013610bb8565b5b61101e60a06109b0565b9050600082013567ffffffffffffffff81111561103e5761103d610bbd565b5b61104a84828501610bfb565b600083015250602082013567ffffffffffffffff81111561106e5761106d610bbd565b5b61107a84828501610f2f565b602083015250604082013567ffffffffffffffff81111561109e5761109d610bbd565b5b6110aa84828501610fd0565b604083015250606082013567ffffffffffffffff8111156110ce576110cd610bbd565b5b6110da84828501610f2f565b60608301525060806110ee84828501610eb1565b60808301525092915050565b600061110d61110884610e42565b6109b0565b905080838252602082019050602084028301858111156111305761112f610bb3565b5b835b8181101561117757803567ffffffffffffffff81111561115557611154610935565b5b8086016111628982610ffe565b85526020850194505050602081019050611132565b5050509392505050565b600082601f83011261119657611195610935565b5b81356111a68482602086016110fa565b91505092915050565b600080600080608085870312156111c9576111c861084f565b5b600085013567ffffffffffffffff8111156111e7576111e6610854565b5b6111f387828801611181565b945050602085013567ffffffffffffffff81111561121457611213610854565b5b61122087828801610a4d565b93505060406112318782880161087a565b92505060606112428782880161087a565b91505092959194509250565b600082825260208201905092915050565b7f496e646578206f7574206f6620626f756e647300000000000000000000000000600082015250565b600061129560138361124e565b91506112a08261125f565b602082019050919050565b600060208201905081810360008301526112c481611288565b9050919050565b7f4e487b7100000000000000000000000000000000000000000000000000000000600052603260045260246000fd5b7f496e76616c696420616464726573730000000000000000000000000000000000600082015250565b6000611330600f8361124e565b915061133b826112fa565b602082019050919050565b6000602082019050818103600083015261135f81611323565b9050919050565b7f4174746573746f7220616c726561647920657869737473000000000000000000600082015250565b600061139c60178361124e565b91506113a782611366565b602082019050919050565b600060208201905081810360008301526113cb8161138f565b9050919050565b6000819050919050565b6000819050919050565b60006114016113fc6113f7846113d2565b6113dc565b610859565b9050919050565b611411816113e6565b82525050565b600060208201905061142c6000830184611408565b92915050565b7f4e487b7100000000000000000000000000000000000000000000000000000000600052601160045260246000fd5b600061146c82610859565b915061147783610859565b925082820190508082111561148f5761148e611432565b5b92915050565b7f4e487b7100000000000000000000000000000000000000000000000000000000600052601260045260246000fd5b60006114cf82610859565b91506114da83610859565b9250826114ea576114e9611495565b5b828204905092915050565b600061150082610859565b915061150b83610859565b925082820390508181111561152357611522611432565b5b92915050565b7f7369676e6564576569676874206e6f742067726561746572207468616e20707260008201527f6f76656e57656967687400000000000000000000000000000000000000000000602082015250565b6000611585602a8361124e565b915061159082611529565b604082019050919050565b600060208201905081810360008301526115b481611578565b9050919050565b600081519050919050565b60005b838110156115e45780820151818401526020810190506115c9565b60008484015250505050565b60006115fb826115bb565b611605818561124e565b93506116158185602086016115c6565b61161e8161093f565b840191505092915050565b6000602082019050818103600083015261164381846115f0565b905092915050565b6000819050919050565b61166661166182610ac4565b61164b565b82525050565b60006116788284611655565b60208201915081905092915050565b7f5369676e61747572652070726f6f66206661696c656400000000000000000000600082015250565b60006116bd60168361124e565b91506116c882611687565b602082019050919050565b600060208201905081810360008301526116ec816116b0565b9050919050565b60006116fe82610859565b91507fffffffffffffffffffffffffffffffffffffffffffffffffffffffffffffffff82036117305761172f611432565b5b60018201905091905056fea26469706673582212203c15f33f472ce40935d3978bf6944124be0fb548cb303300c17c4457a64f6f9264736f6c63430008140033",
  "linkReferences": {},
  "deployedLinkReferences": {}
}